{
	"solidity/merkle_tree/merkla_tree.sol": {
		"Tree": {
			"abi": [
				{
					"inputs": [],
					"stateMutability": "nonpayable",
					"type": "constructor"
				},
				{
					"inputs": [
						{
							"internalType": "string",
							"name": "input",
							"type": "string"
						}
					],
					"name": "encode",
					"outputs": [
						{
							"internalType": "bytes",
							"name": "",
							"type": "bytes"
						}
					],
					"stateMutability": "pure",
					"type": "function"
				},
				{
					"inputs": [
						{
							"internalType": "uint256",
							"name": "",
							"type": "uint256"
						}
					],
					"name": "hashes",
					"outputs": [
						{
							"internalType": "bytes32",
							"name": "",
							"type": "bytes32"
						}
					],
					"stateMutability": "view",
					"type": "function"
				},
				{
					"inputs": [
						{
							"internalType": "string",
							"name": "input",
							"type": "string"
						}
					],
					"name": "makeHash",
					"outputs": [
						{
							"internalType": "bytes32",
							"name": "",
							"type": "bytes32"
						}
					],
					"stateMutability": "pure",
					"type": "function"
				}
			],
			"devdoc": {
				"kind": "dev",
				"methods": {},
				"version": 1
			},
			"evm": {
				"assembly": "    /* \"solidity/merkle_tree/merkla_tree.sol\":58:1132  contract Tree{... */\n  mstore(0x40, 0x80)\n    /* \"solidity/merkle_tree/merkla_tree.sol\":114:267  string[4] transactions = [... */\n  mload(0x40)\n  dup1\n  0x80\n  add\n  0x40\n  mstore\n  dup1\n  mload(0x40)\n  dup1\n  0x40\n  add\n  0x40\n  mstore\n  dup1\n  0x17\n  dup2\n  mstore\n  0x20\n  add\n  0x7478313a2073616e6172626f79202d3e206a6f7264616e000000000000000000\n  dup2\n  mstore\n  pop\n  dup2\n  mstore\n  0x20\n  add\n  mload(0x40)\n  dup1\n  0x40\n  add\n  0x40\n  mstore\n  dup1\n  0x13\n  dup2\n  mstore\n  0x20\n  add\n  0x7478323a206a6f7264616e202d3e206b69726100000000000000000000000000\n  dup2\n  mstore\n  pop\n  dup2\n  mstore\n  0x20\n  add\n  mload(0x40)\n  dup1\n  0x40\n  add\n  0x40\n  mstore\n  dup1\n  0x10\n  dup2\n  mstore\n  0x20\n  add\n  0x7478333a206b697261202d3e2073616d00000000000000000000000000000000\n  dup2\n  mstore\n  pop\n  dup2\n  mstore\n  0x20\n  add\n  mload(0x40)\n  dup1\n  0x40\n  add\n  0x40\n  mstore\n  dup1\n  0x10\n  dup2\n  mstore\n  0x20\n  add\n  0x7478343a2073616d202d3e206572736800000000000000000000000000000000\n  dup2\n  mstore\n  pop\n  dup2\n  mstore\n  pop\n  0x01\n  swap1\n  0x04\n  tag_1\n  swap3\n  swap2\n  swap1\n  tag_2\n  jump\t// in\ntag_1:\n  pop\n    /* \"solidity/merkle_tree/merkla_tree.sol\":274:838  constructor(){... */\n  callvalue\n  dup1\n  iszero\n  tag_3\n  jumpi\n  0x00\n  dup1\n  revert\ntag_3:\n  pop\n    /* \"solidity/merkle_tree/merkla_tree.sol\":301:307  uint i */\n  0x00\n    /* \"solidity/merkle_tree/merkla_tree.sol\":297:403  for(uint i=0; i < transactions.length; i++){... */\ntag_6:\n    /* \"solidity/merkle_tree/merkla_tree.sol\":315:334  transactions.length */\n  0x04\n    /* \"solidity/merkle_tree/merkla_tree.sol\":311:312  i */\n  dup2\n    /* \"solidity/merkle_tree/merkla_tree.sol\":311:334  i < transactions.length */\n  lt\n    /* \"solidity/merkle_tree/merkla_tree.sol\":297:403  for(uint i=0; i < transactions.length; i++){... */\n  iszero\n  tag_7\n  jumpi\n    /* \"solidity/merkle_tree/merkla_tree.sol\":354:360  hashes */\n  0x00\n    /* \"solidity/merkle_tree/merkla_tree.sol\":366:391  makeHash(transactions[i]) */\n  tag_9\n    /* \"solidity/merkle_tree/merkla_tree.sol\":375:387  transactions */\n  0x01\n    /* \"solidity/merkle_tree/merkla_tree.sol\":388:389  i */\n  dup4\n    /* \"solidity/merkle_tree/merkla_tree.sol\":375:390  transactions[i] */\n  0x04\n  dup2\n  lt\n  tag_10\n  jumpi\n  tag_11\n  tag_12\n  jump\t// in\ntag_11:\ntag_10:\n  add\n    /* \"solidity/merkle_tree/merkla_tree.sol\":366:391  makeHash(transactions[i]) */\n  dup1\n  sload\n  tag_14\n  swap1\n  tag_15\n  jump\t// in\ntag_14:\n  dup1\n  0x1f\n  add\n  0x20\n  dup1\n  swap2\n  div\n  mul\n  0x20\n  add\n  mload(0x40)\n  swap1\n  dup2\n  add\n  0x40\n  mstore\n  dup1\n  swap3\n  swap2\n  swap1\n  dup2\n  dup2\n  mstore\n  0x20\n  add\n  dup3\n  dup1\n  sload\n  tag_16\n  swap1\n  tag_15\n  jump\t// in\ntag_16:\n  dup1\n  iszero\n  tag_17\n  jumpi\n  dup1\n  0x1f\n  lt\n  tag_18\n  jumpi\n  0x0100\n  dup1\n  dup4\n  sload\n  div\n  mul\n  dup4\n  mstore\n  swap2\n  0x20\n  add\n  swap2\n  jump(tag_17)\ntag_18:\n  dup3\n  add\n  swap2\n  swap1\n  0x00\n  mstore\n  keccak256(0x00, 0x20)\n  swap1\ntag_19:\n  dup2\n  sload\n  dup2\n  mstore\n  swap1\n  0x01\n  add\n  swap1\n  0x20\n  add\n  dup1\n  dup4\n  gt\n  tag_19\n  jumpi\n  dup3\n  swap1\n  sub\n  0x1f\n  and\n  dup3\n  add\n  swap2\ntag_17:\n  pop\n  pop\n  pop\n  pop\n  pop\n    /* \"solidity/merkle_tree/merkla_tree.sol\":366:374  makeHash */\n  shl(0x20, tag_20)\n    /* \"solidity/merkle_tree/merkla_tree.sol\":366:391  makeHash(transactions[i]) */\n  0x20\n  shr\n  jump\t// in\ntag_9:\n    /* \"solidity/merkle_tree/merkla_tree.sol\":354:392  hashes.push(makeHash(transactions[i])) */\n  swap1\n  dup1\n  0x01\n  dup2\n  sload\n  add\n  dup1\n  dup3\n  sstore\n  dup1\n  swap2\n  pop\n  pop\n  0x01\n  swap1\n  sub\n  swap1\n  0x00\n  mstore\n  keccak256(0x00, 0x20)\n  add\n  0x00\n  swap1\n  swap2\n  swap1\n  swap2\n  swap1\n  swap2\n  pop\n  sstore\n    /* \"solidity/merkle_tree/merkla_tree.sol\":336:339  i++ */\n  dup1\n  dup1\n  0x01\n  add\n  swap2\n  pop\n  pop\n    /* \"solidity/merkle_tree/merkla_tree.sol\":297:403  for(uint i=0; i < transactions.length; i++){... */\n  jump(tag_6)\ntag_7:\n  pop\n    /* \"solidity/merkle_tree/merkla_tree.sol\":413:423  uint count */\n  0x00\n    /* \"solidity/merkle_tree/merkla_tree.sol\":426:445  transactions.length */\n  0x04\n    /* \"solidity/merkle_tree/merkla_tree.sol\":413:445  uint count = transactions.length */\n  swap1\n  pop\n    /* \"solidity/merkle_tree/merkla_tree.sol\":455:466  uint offset */\n  0x00\n    /* \"solidity/merkle_tree/merkla_tree.sol\":480:823  while (count > 0){... */\ntag_22:\n    /* \"solidity/merkle_tree/merkla_tree.sol\":495:496  0 */\n  0x00\n    /* \"solidity/merkle_tree/merkla_tree.sol\":487:492  count */\n  dup3\n    /* \"solidity/merkle_tree/merkla_tree.sol\":487:496  count > 0 */\n  gt\n    /* \"solidity/merkle_tree/merkla_tree.sol\":480:823  while (count > 0){... */\n  iszero\n  tag_23\n  jumpi\n    /* \"solidity/merkle_tree/merkla_tree.sol\":517:523  uint i */\n  0x00\n    /* \"solidity/merkle_tree/merkla_tree.sol\":512:753  for (uint i = 0; i < count - 1; i += 2){... */\ntag_24:\n    /* \"solidity/merkle_tree/merkla_tree.sol\":541:542  1 */\n  0x01\n    /* \"solidity/merkle_tree/merkla_tree.sol\":533:538  count */\n  dup4\n    /* \"solidity/merkle_tree/merkla_tree.sol\":533:542  count - 1 */\n  tag_27\n  swap2\n  swap1\n  tag_28\n  jump\t// in\ntag_27:\n    /* \"solidity/merkle_tree/merkla_tree.sol\":529:530  i */\n  dup2\n    /* \"solidity/merkle_tree/merkla_tree.sol\":529:542  i < count - 1 */\n  lt\n    /* \"solidity/merkle_tree/merkla_tree.sol\":512:753  for (uint i = 0; i < count - 1; i += 2){... */\n  iszero\n  tag_25\n  jumpi\n    /* \"solidity/merkle_tree/merkla_tree.sol\":569:575  hashes */\n  0x00\n    /* \"solidity/merkle_tree/merkla_tree.sol\":654:660  hashes */\n  dup1\n    /* \"solidity/merkle_tree/merkla_tree.sol\":670:671  i */\n  dup3\n    /* \"solidity/merkle_tree/merkla_tree.sol\":661:667  offset */\n  dup5\n    /* \"solidity/merkle_tree/merkla_tree.sol\":661:671  offset + i */\n  tag_29\n  swap2\n  swap1\n  tag_30\n  jump\t// in\ntag_29:\n    /* \"solidity/merkle_tree/merkla_tree.sol\":654:672  hashes[offset + i] */\n  dup2\n  sload\n  dup2\n  lt\n  tag_31\n  jumpi\n  tag_32\n  tag_12\n  jump\t// in\ntag_32:\ntag_31:\n  swap1\n  0x00\n  mstore\n  keccak256(0x00, 0x20)\n  add\n  sload\n    /* \"solidity/merkle_tree/merkla_tree.sol\":674:680  hashes */\n  0x00\n    /* \"solidity/merkle_tree/merkla_tree.sol\":694:695  1 */\n  0x01\n    /* \"solidity/merkle_tree/merkla_tree.sol\":690:691  i */\n  dup5\n    /* \"solidity/merkle_tree/merkla_tree.sol\":681:687  offset */\n  dup7\n    /* \"solidity/merkle_tree/merkla_tree.sol\":681:691  offset + i */\n  tag_34\n  swap2\n  swap1\n  tag_30\n  jump\t// in\ntag_34:\n    /* \"solidity/merkle_tree/merkla_tree.sol\":681:695  offset + i + 1 */\n  tag_35\n  swap2\n  swap1\n  tag_30\n  jump\t// in\ntag_35:\n    /* \"solidity/merkle_tree/merkla_tree.sol\":674:696  hashes[offset + i + 1] */\n  dup2\n  sload\n  dup2\n  lt\n  tag_36\n  jumpi\n  tag_37\n  tag_12\n  jump\t// in\ntag_37:\ntag_36:\n  swap1\n  0x00\n  mstore\n  keccak256(0x00, 0x20)\n  add\n  sload\n    /* \"solidity/merkle_tree/merkla_tree.sol\":612:719  abi.encodePacked(... */\n  add(0x20, mload(0x40))\n  tag_39\n  swap3\n  swap2\n  swap1\n  tag_40\n  jump\t// in\ntag_39:\n  mload(0x40)\n  0x20\n  dup2\n  dup4\n  sub\n  sub\n  dup2\n  mstore\n  swap1\n  0x40\n  mstore\n    /* \"solidity/merkle_tree/merkla_tree.sol\":581:737  keccak256(... */\n  dup1\n  mload\n  swap1\n  0x20\n  add\n  keccak256\n    /* \"solidity/merkle_tree/merkla_tree.sol\":569:738  hashes.push(keccak256(... */\n  swap1\n  dup1\n  0x01\n  dup2\n  sload\n  add\n  dup1\n  dup3\n  sstore\n  dup1\n  swap2\n  pop\n  pop\n  0x01\n  swap1\n  sub\n  swap1\n  0x00\n  mstore\n  keccak256(0x00, 0x20)\n  add\n  0x00\n  swap1\n  swap2\n  swap1\n  swap2\n  swap1\n  swap2\n  pop\n  sstore\n    /* \"solidity/merkle_tree/merkla_tree.sol\":549:550  2 */\n  0x02\n    /* \"solidity/merkle_tree/merkla_tree.sol\":544:550  i += 2 */\n  dup2\n  tag_42\n  swap2\n  swap1\n  tag_30\n  jump\t// in\ntag_42:\n  swap1\n  pop\n    /* \"solidity/merkle_tree/merkla_tree.sol\":512:753  for (uint i = 0; i < count - 1; i += 2){... */\n  jump(tag_24)\ntag_25:\n  pop\n    /* \"solidity/merkle_tree/merkla_tree.sol\":776:781  count */\n  dup2\n    /* \"solidity/merkle_tree/merkla_tree.sol\":766:781  offset += count */\n  dup2\n  tag_43\n  swap2\n  swap1\n  tag_30\n  jump\t// in\ntag_43:\n  swap1\n  pop\n    /* \"solidity/merkle_tree/merkla_tree.sol\":811:812  2 */\n  0x02\n    /* \"solidity/merkle_tree/merkla_tree.sol\":803:808  count */\n  dup3\n    /* \"solidity/merkle_tree/merkla_tree.sol\":803:812  count / 2 */\n  tag_44\n  swap2\n  swap1\n  tag_45\n  jump\t// in\ntag_44:\n    /* \"solidity/merkle_tree/merkla_tree.sol\":795:812  count = count / 2 */\n  swap2\n  pop\n    /* \"solidity/merkle_tree/merkla_tree.sol\":480:823  while (count > 0){... */\n  jump(tag_22)\ntag_23:\n    /* \"solidity/merkle_tree/merkla_tree.sol\":287:838  {... */\n  pop\n  pop\n    /* \"solidity/merkle_tree/merkla_tree.sol\":58:1132  contract Tree{... */\n  jump(tag_46)\n    /* \"solidity/merkle_tree/merkla_tree.sol\":969:1108  function makeHash(string memory input) public  pure returns (bytes32){... */\ntag_20:\n    /* \"solidity/merkle_tree/merkla_tree.sol\":1030:1037  bytes32 */\n  0x00\n    /* \"solidity/merkle_tree/merkla_tree.sol\":1078:1091  encode(input) */\n  tag_48\n    /* \"solidity/merkle_tree/merkla_tree.sol\":1085:1090  input */\n  dup3\n    /* \"solidity/merkle_tree/merkla_tree.sol\":1078:1084  encode */\n  shl(0x20, tag_49)\n    /* \"solidity/merkle_tree/merkla_tree.sol\":1078:1091  encode(input) */\n  0x20\n  shr\n  jump\t// in\ntag_48:\n    /* \"solidity/merkle_tree/merkla_tree.sol\":1055:1101  keccak256(... */\n  dup1\n  mload\n  swap1\n  0x20\n  add\n  keccak256\n    /* \"solidity/merkle_tree/merkla_tree.sol\":1048:1101  return keccak256(... */\n  swap1\n  pop\n    /* \"solidity/merkle_tree/merkla_tree.sol\":969:1108  function makeHash(string memory input) public  pure returns (bytes32){... */\n  swap2\n  swap1\n  pop\n  jump\t// out\n    /* \"solidity/merkle_tree/merkla_tree.sol\":845:962  function encode(string memory input) public pure returns(bytes memory){... */\ntag_49:\n    /* \"solidity/merkle_tree/merkla_tree.sol\":902:914  bytes memory */\n  0x60\n    /* \"solidity/merkle_tree/merkla_tree.sol\":949:954  input */\n  dup2\n    /* \"solidity/merkle_tree/merkla_tree.sol\":932:955  abi.encodePacked(input) */\n  add(0x20, mload(0x40))\n  tag_51\n  swap2\n  swap1\n  tag_52\n  jump\t// in\ntag_51:\n  mload(0x40)\n  0x20\n  dup2\n  dup4\n  sub\n  sub\n  dup2\n  mstore\n  swap1\n  0x40\n  mstore\n    /* \"solidity/merkle_tree/merkla_tree.sol\":925:955  return abi.encodePacked(input) */\n  swap1\n  pop\n    /* \"solidity/merkle_tree/merkla_tree.sol\":845:962  function encode(string memory input) public pure returns(bytes memory){... */\n  swap2\n  swap1\n  pop\n  jump\t// out\n    /* \"solidity/merkle_tree/merkla_tree.sol\":58:1132  contract Tree{... */\ntag_2:\n  dup3\n  0x04\n  dup2\n  add\n  swap3\n  dup3\n  iszero\n  tag_53\n  jumpi\n  swap2\n  0x20\n  mul\n  dup3\n  add\ntag_54:\n  dup3\n  dup2\n  gt\n  iszero\n  tag_55\n  jumpi\n  dup3\n  mload\n  dup3\n  swap1\n  dup2\n  tag_56\n  swap2\n  swap1\n  tag_57\n  jump\t// in\ntag_56:\n  pop\n  swap2\n  0x20\n  add\n  swap2\n  swap1\n  0x01\n  add\n  swap1\n  jump(tag_54)\ntag_55:\ntag_53:\n  pop\n  swap1\n  pop\n  tag_58\n  swap2\n  swap1\n  tag_59\n  jump\t// in\ntag_58:\n  pop\n  swap1\n  jump\t// out\ntag_59:\ntag_60:\n  dup1\n  dup3\n  gt\n  iszero\n  tag_61\n  jumpi\n  0x00\n  dup2\n  dup2\n  tag_62\n  swap2\n  swap1\n  tag_63\n  jump\t// in\ntag_62:\n  pop\n  0x01\n  add\n  jump(tag_60)\ntag_61:\n  pop\n  swap1\n  jump\t// out\ntag_63:\n  pop\n  dup1\n  sload\n  tag_64\n  swap1\n  tag_15\n  jump\t// in\ntag_64:\n  0x00\n  dup3\n  sstore\n  dup1\n  0x1f\n  lt\n  tag_66\n  jumpi\n  pop\n  jump(tag_65)\ntag_66:\n  0x1f\n  add\n  0x20\n  swap1\n  div\n  swap1\n  0x00\n  mstore\n  keccak256(0x00, 0x20)\n  swap1\n  dup2\n  add\n  swap1\n  tag_67\n  swap2\n  swap1\n  tag_68\n  jump\t// in\ntag_67:\ntag_65:\n  pop\n  jump\t// out\ntag_68:\ntag_69:\n  dup1\n  dup3\n  gt\n  iszero\n  tag_70\n  jumpi\n  0x00\n  dup2\n  0x00\n  swap1\n  sstore\n  pop\n  0x01\n  add\n  jump(tag_69)\ntag_70:\n  pop\n  swap1\n  jump\t// out\n    /* \"#utility.yul\":7:187   */\ntag_12:\n    /* \"#utility.yul\":55:132   */\n  0x4e487b7100000000000000000000000000000000000000000000000000000000\n    /* \"#utility.yul\":52:53   */\n  0x00\n    /* \"#utility.yul\":45:133   */\n  mstore\n    /* \"#utility.yul\":152:156   */\n  0x32\n    /* \"#utility.yul\":149:150   */\n  0x04\n    /* \"#utility.yul\":142:157   */\n  mstore\n    /* \"#utility.yul\":176:180   */\n  0x24\n    /* \"#utility.yul\":173:174   */\n  0x00\n    /* \"#utility.yul\":166:181   */\n  revert\n    /* \"#utility.yul\":193:373   */\ntag_71:\n    /* \"#utility.yul\":241:318   */\n  0x4e487b7100000000000000000000000000000000000000000000000000000000\n    /* \"#utility.yul\":238:239   */\n  0x00\n    /* \"#utility.yul\":231:319   */\n  mstore\n    /* \"#utility.yul\":338:342   */\n  0x22\n    /* \"#utility.yul\":335:336   */\n  0x04\n    /* \"#utility.yul\":328:343   */\n  mstore\n    /* \"#utility.yul\":362:366   */\n  0x24\n    /* \"#utility.yul\":359:360   */\n  0x00\n    /* \"#utility.yul\":352:367   */\n  revert\n    /* \"#utility.yul\":379:699   */\ntag_15:\n    /* \"#utility.yul\":423:429   */\n  0x00\n    /* \"#utility.yul\":460:461   */\n  0x02\n    /* \"#utility.yul\":454:458   */\n  dup3\n    /* \"#utility.yul\":450:462   */\n  div\n    /* \"#utility.yul\":440:462   */\n  swap1\n  pop\n    /* \"#utility.yul\":507:508   */\n  0x01\n    /* \"#utility.yul\":501:505   */\n  dup3\n    /* \"#utility.yul\":497:509   */\n  and\n    /* \"#utility.yul\":528:546   */\n  dup1\n    /* \"#utility.yul\":518:599   */\n  tag_102\n  jumpi\n    /* \"#utility.yul\":584:588   */\n  0x7f\n    /* \"#utility.yul\":576:582   */\n  dup3\n    /* \"#utility.yul\":572:589   */\n  and\n    /* \"#utility.yul\":562:589   */\n  swap2\n  pop\n    /* \"#utility.yul\":518:599   */\ntag_102:\n    /* \"#utility.yul\":646:648   */\n  0x20\n    /* \"#utility.yul\":638:644   */\n  dup3\n    /* \"#utility.yul\":635:649   */\n  lt\n    /* \"#utility.yul\":615:633   */\n  dup2\n    /* \"#utility.yul\":612:650   */\n  sub\n    /* \"#utility.yul\":609:693   */\n  tag_103\n  jumpi\n    /* \"#utility.yul\":665:683   */\n  tag_104\n  tag_71\n  jump\t// in\ntag_104:\n    /* \"#utility.yul\":609:693   */\ntag_103:\n    /* \"#utility.yul\":430:699   */\n  pop\n    /* \"#utility.yul\":379:699   */\n  swap2\n  swap1\n  pop\n  jump\t// out\n    /* \"#utility.yul\":705:782   */\ntag_72:\n    /* \"#utility.yul\":742:749   */\n  0x00\n    /* \"#utility.yul\":771:776   */\n  dup2\n    /* \"#utility.yul\":760:776   */\n  swap1\n  pop\n    /* \"#utility.yul\":705:782   */\n  swap2\n  swap1\n  pop\n  jump\t// out\n    /* \"#utility.yul\":788:968   */\ntag_73:\n    /* \"#utility.yul\":836:913   */\n  0x4e487b7100000000000000000000000000000000000000000000000000000000\n    /* \"#utility.yul\":833:834   */\n  0x00\n    /* \"#utility.yul\":826:914   */\n  mstore\n    /* \"#utility.yul\":933:937   */\n  0x11\n    /* \"#utility.yul\":930:931   */\n  0x04\n    /* \"#utility.yul\":923:938   */\n  mstore\n    /* \"#utility.yul\":957:961   */\n  0x24\n    /* \"#utility.yul\":954:955   */\n  0x00\n    /* \"#utility.yul\":947:962   */\n  revert\n    /* \"#utility.yul\":974:1168   */\ntag_28:\n    /* \"#utility.yul\":1014:1018   */\n  0x00\n    /* \"#utility.yul\":1034:1054   */\n  tag_108\n    /* \"#utility.yul\":1052:1053   */\n  dup3\n    /* \"#utility.yul\":1034:1054   */\n  tag_72\n  jump\t// in\ntag_108:\n    /* \"#utility.yul\":1029:1054   */\n  swap2\n  pop\n    /* \"#utility.yul\":1068:1088   */\n  tag_109\n    /* \"#utility.yul\":1086:1087   */\n  dup4\n    /* \"#utility.yul\":1068:1088   */\n  tag_72\n  jump\t// in\ntag_109:\n    /* \"#utility.yul\":1063:1088   */\n  swap3\n  pop\n    /* \"#utility.yul\":1112:1113   */\n  dup3\n    /* \"#utility.yul\":1109:1110   */\n  dup3\n    /* \"#utility.yul\":1105:1114   */\n  sub\n    /* \"#utility.yul\":1097:1114   */\n  swap1\n  pop\n    /* \"#utility.yul\":1136:1137   */\n  dup2\n    /* \"#utility.yul\":1130:1134   */\n  dup2\n    /* \"#utility.yul\":1127:1138   */\n  gt\n    /* \"#utility.yul\":1124:1161   */\n  iszero\n  tag_110\n  jumpi\n    /* \"#utility.yul\":1141:1159   */\n  tag_111\n  tag_73\n  jump\t// in\ntag_111:\n    /* \"#utility.yul\":1124:1161   */\ntag_110:\n    /* \"#utility.yul\":974:1168   */\n  swap3\n  swap2\n  pop\n  pop\n  jump\t// out\n    /* \"#utility.yul\":1174:1365   */\ntag_30:\n    /* \"#utility.yul\":1214:1217   */\n  0x00\n    /* \"#utility.yul\":1233:1253   */\n  tag_113\n    /* \"#utility.yul\":1251:1252   */\n  dup3\n    /* \"#utility.yul\":1233:1253   */\n  tag_72\n  jump\t// in\ntag_113:\n    /* \"#utility.yul\":1228:1253   */\n  swap2\n  pop\n    /* \"#utility.yul\":1267:1287   */\n  tag_114\n    /* \"#utility.yul\":1285:1286   */\n  dup4\n    /* \"#utility.yul\":1267:1287   */\n  tag_72\n  jump\t// in\ntag_114:\n    /* \"#utility.yul\":1262:1287   */\n  swap3\n  pop\n    /* \"#utility.yul\":1310:1311   */\n  dup3\n    /* \"#utility.yul\":1307:1308   */\n  dup3\n    /* \"#utility.yul\":1303:1312   */\n  add\n    /* \"#utility.yul\":1296:1312   */\n  swap1\n  pop\n    /* \"#utility.yul\":1331:1334   */\n  dup1\n    /* \"#utility.yul\":1328:1329   */\n  dup3\n    /* \"#utility.yul\":1325:1335   */\n  gt\n    /* \"#utility.yul\":1322:1358   */\n  iszero\n  tag_115\n  jumpi\n    /* \"#utility.yul\":1338:1356   */\n  tag_116\n  tag_73\n  jump\t// in\ntag_116:\n    /* \"#utility.yul\":1322:1358   */\ntag_115:\n    /* \"#utility.yul\":1174:1365   */\n  swap3\n  swap2\n  pop\n  pop\n  jump\t// out\n    /* \"#utility.yul\":1371:1448   */\ntag_74:\n    /* \"#utility.yul\":1408:1415   */\n  0x00\n    /* \"#utility.yul\":1437:1442   */\n  dup2\n    /* \"#utility.yul\":1426:1442   */\n  swap1\n  pop\n    /* \"#utility.yul\":1371:1448   */\n  swap2\n  swap1\n  pop\n  jump\t// out\n    /* \"#utility.yul\":1454:1533   */\ntag_75:\n    /* \"#utility.yul\":1493:1500   */\n  0x00\n    /* \"#utility.yul\":1522:1527   */\n  dup2\n    /* \"#utility.yul\":1511:1527   */\n  swap1\n  pop\n    /* \"#utility.yul\":1454:1533   */\n  swap2\n  swap1\n  pop\n  jump\t// out\n    /* \"#utility.yul\":1539:1696   */\ntag_76:\n    /* \"#utility.yul\":1644:1689   */\n  tag_120\n    /* \"#utility.yul\":1664:1688   */\n  tag_121\n    /* \"#utility.yul\":1682:1687   */\n  dup3\n    /* \"#utility.yul\":1664:1688   */\n  tag_74\n  jump\t// in\ntag_121:\n    /* \"#utility.yul\":1644:1689   */\n  tag_75\n  jump\t// in\ntag_120:\n    /* \"#utility.yul\":1639:1642   */\n  dup3\n    /* \"#utility.yul\":1632:1690   */\n  mstore\n    /* \"#utility.yul\":1539:1696   */\n  pop\n  pop\n  jump\t// out\n    /* \"#utility.yul\":1702:2099   */\ntag_40:\n    /* \"#utility.yul\":1842:1845   */\n  0x00\n    /* \"#utility.yul\":1857:1932   */\n  tag_123\n    /* \"#utility.yul\":1928:1931   */\n  dup3\n    /* \"#utility.yul\":1919:1925   */\n  dup6\n    /* \"#utility.yul\":1857:1932   */\n  tag_76\n  jump\t// in\ntag_123:\n    /* \"#utility.yul\":1957:1959   */\n  0x20\n    /* \"#utility.yul\":1952:1955   */\n  dup3\n    /* \"#utility.yul\":1948:1960   */\n  add\n    /* \"#utility.yul\":1941:1960   */\n  swap2\n  pop\n    /* \"#utility.yul\":1970:2045   */\n  tag_124\n    /* \"#utility.yul\":2041:2044   */\n  dup3\n    /* \"#utility.yul\":2032:2038   */\n  dup5\n    /* \"#utility.yul\":1970:2045   */\n  tag_76\n  jump\t// in\ntag_124:\n    /* \"#utility.yul\":2070:2072   */\n  0x20\n    /* \"#utility.yul\":2065:2068   */\n  dup3\n    /* \"#utility.yul\":2061:2073   */\n  add\n    /* \"#utility.yul\":2054:2073   */\n  swap2\n  pop\n    /* \"#utility.yul\":2090:2093   */\n  dup2\n    /* \"#utility.yul\":2083:2093   */\n  swap1\n  pop\n    /* \"#utility.yul\":1702:2099   */\n  swap4\n  swap3\n  pop\n  pop\n  pop\n  jump\t// out\n    /* \"#utility.yul\":2105:2285   */\ntag_77:\n    /* \"#utility.yul\":2153:2230   */\n  0x4e487b7100000000000000000000000000000000000000000000000000000000\n    /* \"#utility.yul\":2150:2151   */\n  0x00\n    /* \"#utility.yul\":2143:2231   */\n  mstore\n    /* \"#utility.yul\":2250:2254   */\n  0x12\n    /* \"#utility.yul\":2247:2248   */\n  0x04\n    /* \"#utility.yul\":2240:2255   */\n  mstore\n    /* \"#utility.yul\":2274:2278   */\n  0x24\n    /* \"#utility.yul\":2271:2272   */\n  0x00\n    /* \"#utility.yul\":2264:2279   */\n  revert\n    /* \"#utility.yul\":2291:2476   */\ntag_45:\n    /* \"#utility.yul\":2331:2332   */\n  0x00\n    /* \"#utility.yul\":2348:2368   */\n  tag_127\n    /* \"#utility.yul\":2366:2367   */\n  dup3\n    /* \"#utility.yul\":2348:2368   */\n  tag_72\n  jump\t// in\ntag_127:\n    /* \"#utility.yul\":2343:2368   */\n  swap2\n  pop\n    /* \"#utility.yul\":2382:2402   */\n  tag_128\n    /* \"#utility.yul\":2400:2401   */\n  dup4\n    /* \"#utility.yul\":2382:2402   */\n  tag_72\n  jump\t// in\ntag_128:\n    /* \"#utility.yul\":2377:2402   */\n  swap3\n  pop\n    /* \"#utility.yul\":2421:2422   */\n  dup3\n    /* \"#utility.yul\":2411:2446   */\n  tag_129\n  jumpi\n    /* \"#utility.yul\":2426:2444   */\n  tag_130\n  tag_77\n  jump\t// in\ntag_130:\n    /* \"#utility.yul\":2411:2446   */\ntag_129:\n    /* \"#utility.yul\":2468:2469   */\n  dup3\n    /* \"#utility.yul\":2465:2466   */\n  dup3\n    /* \"#utility.yul\":2461:2470   */\n  div\n    /* \"#utility.yul\":2456:2470   */\n  swap1\n  pop\n    /* \"#utility.yul\":2291:2476   */\n  swap3\n  swap2\n  pop\n  pop\n  jump\t// out\n    /* \"#utility.yul\":2482:2581   */\ntag_78:\n    /* \"#utility.yul\":2534:2540   */\n  0x00\n    /* \"#utility.yul\":2568:2573   */\n  dup2\n    /* \"#utility.yul\":2562:2574   */\n  mload\n    /* \"#utility.yul\":2552:2574   */\n  swap1\n  pop\n    /* \"#utility.yul\":2482:2581   */\n  swap2\n  swap1\n  pop\n  jump\t// out\n    /* \"#utility.yul\":2587:2735   */\ntag_79:\n    /* \"#utility.yul\":2689:2700   */\n  0x00\n    /* \"#utility.yul\":2726:2729   */\n  dup2\n    /* \"#utility.yul\":2711:2729   */\n  swap1\n  pop\n    /* \"#utility.yul\":2587:2735   */\n  swap3\n  swap2\n  pop\n  pop\n  jump\t// out\n    /* \"#utility.yul\":2741:2987   */\ntag_80:\n    /* \"#utility.yul\":2822:2823   */\n  0x00\n    /* \"#utility.yul\":2832:2945   */\ntag_134:\n    /* \"#utility.yul\":2846:2852   */\n  dup4\n    /* \"#utility.yul\":2843:2844   */\n  dup2\n    /* \"#utility.yul\":2840:2853   */\n  lt\n    /* \"#utility.yul\":2832:2945   */\n  iszero\n  tag_136\n  jumpi\n    /* \"#utility.yul\":2931:2932   */\n  dup1\n    /* \"#utility.yul\":2926:2929   */\n  dup3\n    /* \"#utility.yul\":2922:2933   */\n  add\n    /* \"#utility.yul\":2916:2934   */\n  mload\n    /* \"#utility.yul\":2912:2913   */\n  dup2\n    /* \"#utility.yul\":2907:2910   */\n  dup5\n    /* \"#utility.yul\":2903:2914   */\n  add\n    /* \"#utility.yul\":2896:2935   */\n  mstore\n    /* \"#utility.yul\":2868:2870   */\n  0x20\n    /* \"#utility.yul\":2865:2866   */\n  dup2\n    /* \"#utility.yul\":2861:2871   */\n  add\n    /* \"#utility.yul\":2856:2871   */\n  swap1\n  pop\n    /* \"#utility.yul\":2832:2945   */\n  jump(tag_134)\ntag_136:\n    /* \"#utility.yul\":2979:2980   */\n  0x00\n    /* \"#utility.yul\":2970:2976   */\n  dup5\n    /* \"#utility.yul\":2965:2968   */\n  dup5\n    /* \"#utility.yul\":2961:2977   */\n  add\n    /* \"#utility.yul\":2954:2981   */\n  mstore\n    /* \"#utility.yul\":2803:2987   */\n  pop\n    /* \"#utility.yul\":2741:2987   */\n  pop\n  pop\n  pop\n  jump\t// out\n    /* \"#utility.yul\":2993:3383   */\ntag_81:\n    /* \"#utility.yul\":3099:3102   */\n  0x00\n    /* \"#utility.yul\":3127:3166   */\n  tag_138\n    /* \"#utility.yul\":3160:3165   */\n  dup3\n    /* \"#utility.yul\":3127:3166   */\n  tag_78\n  jump\t// in\ntag_138:\n    /* \"#utility.yul\":3182:3271   */\n  tag_139\n    /* \"#utility.yul\":3264:3270   */\n  dup2\n    /* \"#utility.yul\":3259:3262   */\n  dup6\n    /* \"#utility.yul\":3182:3271   */\n  tag_79\n  jump\t// in\ntag_139:\n    /* \"#utility.yul\":3175:3271   */\n  swap4\n  pop\n    /* \"#utility.yul\":3280:3345   */\n  tag_140\n    /* \"#utility.yul\":3338:3344   */\n  dup2\n    /* \"#utility.yul\":3333:3336   */\n  dup6\n    /* \"#utility.yul\":3326:3330   */\n  0x20\n    /* \"#utility.yul\":3319:3324   */\n  dup7\n    /* \"#utility.yul\":3315:3331   */\n  add\n    /* \"#utility.yul\":3280:3345   */\n  tag_80\n  jump\t// in\ntag_140:\n    /* \"#utility.yul\":3370:3376   */\n  dup1\n    /* \"#utility.yul\":3365:3368   */\n  dup5\n    /* \"#utility.yul\":3361:3377   */\n  add\n    /* \"#utility.yul\":3354:3377   */\n  swap2\n  pop\n    /* \"#utility.yul\":3103:3383   */\n  pop\n    /* \"#utility.yul\":2993:3383   */\n  swap3\n  swap2\n  pop\n  pop\n  jump\t// out\n    /* \"#utility.yul\":3389:3664   */\ntag_52:\n    /* \"#utility.yul\":3521:3524   */\n  0x00\n    /* \"#utility.yul\":3543:3638   */\n  tag_142\n    /* \"#utility.yul\":3634:3637   */\n  dup3\n    /* \"#utility.yul\":3625:3631   */\n  dup5\n    /* \"#utility.yul\":3543:3638   */\n  tag_81\n  jump\t// in\ntag_142:\n    /* \"#utility.yul\":3536:3638   */\n  swap2\n  pop\n    /* \"#utility.yul\":3655:3658   */\n  dup2\n    /* \"#utility.yul\":3648:3658   */\n  swap1\n  pop\n    /* \"#utility.yul\":3389:3664   */\n  swap3\n  swap2\n  pop\n  pop\n  jump\t// out\n    /* \"#utility.yul\":3670:3850   */\ntag_82:\n    /* \"#utility.yul\":3718:3795   */\n  0x4e487b7100000000000000000000000000000000000000000000000000000000\n    /* \"#utility.yul\":3715:3716   */\n  0x00\n    /* \"#utility.yul\":3708:3796   */\n  mstore\n    /* \"#utility.yul\":3815:3819   */\n  0x41\n    /* \"#utility.yul\":3812:3813   */\n  0x04\n    /* \"#utility.yul\":3805:3820   */\n  mstore\n    /* \"#utility.yul\":3839:3843   */\n  0x24\n    /* \"#utility.yul\":3836:3837   */\n  0x00\n    /* \"#utility.yul\":3829:3844   */\n  revert\n    /* \"#utility.yul\":3856:3997   */\ntag_83:\n    /* \"#utility.yul\":3905:3909   */\n  0x00\n    /* \"#utility.yul\":3928:3931   */\n  dup2\n    /* \"#utility.yul\":3920:3931   */\n  swap1\n  pop\n    /* \"#utility.yul\":3951:3954   */\n  dup2\n    /* \"#utility.yul\":3948:3949   */\n  0x00\n    /* \"#utility.yul\":3941:3955   */\n  mstore\n    /* \"#utility.yul\":3985:3989   */\n  0x20\n    /* \"#utility.yul\":3982:3983   */\n  0x00\n    /* \"#utility.yul\":3972:3990   */\n  keccak256\n    /* \"#utility.yul\":3964:3990   */\n  swap1\n  pop\n    /* \"#utility.yul\":3856:3997   */\n  swap2\n  swap1\n  pop\n  jump\t// out\n    /* \"#utility.yul\":4003:4096   */\ntag_84:\n    /* \"#utility.yul\":4040:4046   */\n  0x00\n    /* \"#utility.yul\":4087:4089   */\n  0x20\n    /* \"#utility.yul\":4082:4084   */\n  0x1f\n    /* \"#utility.yul\":4075:4080   */\n  dup4\n    /* \"#utility.yul\":4071:4085   */\n  add\n    /* \"#utility.yul\":4067:4090   */\n  div\n    /* \"#utility.yul\":4057:4090   */\n  swap1\n  pop\n    /* \"#utility.yul\":4003:4096   */\n  swap2\n  swap1\n  pop\n  jump\t// out\n    /* \"#utility.yul\":4102:4209   */\ntag_85:\n    /* \"#utility.yul\":4146:4154   */\n  0x00\n    /* \"#utility.yul\":4196:4201   */\n  dup3\n    /* \"#utility.yul\":4190:4194   */\n  dup3\n    /* \"#utility.yul\":4186:4202   */\n  shl\n    /* \"#utility.yul\":4165:4202   */\n  swap1\n  pop\n    /* \"#utility.yul\":4102:4209   */\n  swap3\n  swap2\n  pop\n  pop\n  jump\t// out\n    /* \"#utility.yul\":4215:4608   */\ntag_86:\n    /* \"#utility.yul\":4284:4290   */\n  0x00\n    /* \"#utility.yul\":4334:4335   */\n  0x08\n    /* \"#utility.yul\":4322:4332   */\n  dup4\n    /* \"#utility.yul\":4318:4336   */\n  mul\n    /* \"#utility.yul\":4357:4454   */\n  tag_148\n    /* \"#utility.yul\":4387:4453   */\n  0xffffffffffffffffffffffffffffffffffffffffffffffffffffffffffffffff\n    /* \"#utility.yul\":4376:4385   */\n  dup3\n    /* \"#utility.yul\":4357:4454   */\n  tag_85\n  jump\t// in\ntag_148:\n    /* \"#utility.yul\":4475:4514   */\n  tag_149\n    /* \"#utility.yul\":4505:4513   */\n  dup7\n    /* \"#utility.yul\":4494:4503   */\n  dup4\n    /* \"#utility.yul\":4475:4514   */\n  tag_85\n  jump\t// in\ntag_149:\n    /* \"#utility.yul\":4463:4514   */\n  swap6\n  pop\n    /* \"#utility.yul\":4547:4551   */\n  dup1\n    /* \"#utility.yul\":4543:4552   */\n  not\n    /* \"#utility.yul\":4536:4541   */\n  dup5\n    /* \"#utility.yul\":4532:4553   */\n  and\n    /* \"#utility.yul\":4523:4553   */\n  swap4\n  pop\n    /* \"#utility.yul\":4596:4600   */\n  dup1\n    /* \"#utility.yul\":4586:4594   */\n  dup7\n    /* \"#utility.yul\":4582:4601   */\n  and\n    /* \"#utility.yul\":4575:4580   */\n  dup5\n    /* \"#utility.yul\":4572:4602   */\n  or\n    /* \"#utility.yul\":4562:4602   */\n  swap3\n  pop\n    /* \"#utility.yul\":4291:4608   */\n  pop\n  pop\n    /* \"#utility.yul\":4215:4608   */\n  swap4\n  swap3\n  pop\n  pop\n  pop\n  jump\t// out\n    /* \"#utility.yul\":4614:4674   */\ntag_87:\n    /* \"#utility.yul\":4642:4645   */\n  0x00\n    /* \"#utility.yul\":4663:4668   */\n  dup2\n    /* \"#utility.yul\":4656:4668   */\n  swap1\n  pop\n    /* \"#utility.yul\":4614:4674   */\n  swap2\n  swap1\n  pop\n  jump\t// out\n    /* \"#utility.yul\":4680:4822   */\ntag_88:\n    /* \"#utility.yul\":4730:4739   */\n  0x00\n    /* \"#utility.yul\":4763:4816   */\n  tag_152\n    /* \"#utility.yul\":4781:4815   */\n  tag_153\n    /* \"#utility.yul\":4790:4814   */\n  tag_154\n    /* \"#utility.yul\":4808:4813   */\n  dup5\n    /* \"#utility.yul\":4790:4814   */\n  tag_72\n  jump\t// in\ntag_154:\n    /* \"#utility.yul\":4781:4815   */\n  tag_87\n  jump\t// in\ntag_153:\n    /* \"#utility.yul\":4763:4816   */\n  tag_72\n  jump\t// in\ntag_152:\n    /* \"#utility.yul\":4750:4816   */\n  swap1\n  pop\n    /* \"#utility.yul\":4680:4822   */\n  swap2\n  swap1\n  pop\n  jump\t// out\n    /* \"#utility.yul\":4828:4903   */\ntag_89:\n    /* \"#utility.yul\":4871:4874   */\n  0x00\n    /* \"#utility.yul\":4892:4897   */\n  dup2\n    /* \"#utility.yul\":4885:4897   */\n  swap1\n  pop\n    /* \"#utility.yul\":4828:4903   */\n  swap2\n  swap1\n  pop\n  jump\t// out\n    /* \"#utility.yul\":4909:5178   */\ntag_90:\n    /* \"#utility.yul\":5019:5058   */\n  tag_157\n    /* \"#utility.yul\":5050:5057   */\n  dup4\n    /* \"#utility.yul\":5019:5058   */\n  tag_88\n  jump\t// in\ntag_157:\n    /* \"#utility.yul\":5080:5171   */\n  tag_158\n    /* \"#utility.yul\":5129:5170   */\n  tag_159\n    /* \"#utility.yul\":5153:5169   */\n  dup3\n    /* \"#utility.yul\":5129:5170   */\n  tag_89\n  jump\t// in\ntag_159:\n    /* \"#utility.yul\":5121:5127   */\n  dup5\n    /* \"#utility.yul\":5114:5118   */\n  dup5\n    /* \"#utility.yul\":5108:5119   */\n  sload\n    /* \"#utility.yul\":5080:5171   */\n  tag_86\n  jump\t// in\ntag_158:\n    /* \"#utility.yul\":5074:5078   */\n  dup3\n    /* \"#utility.yul\":5067:5172   */\n  sstore\n    /* \"#utility.yul\":4985:5178   */\n  pop\n    /* \"#utility.yul\":4909:5178   */\n  pop\n  pop\n  pop\n  jump\t// out\n    /* \"#utility.yul\":5184:5257   */\ntag_91:\n    /* \"#utility.yul\":5229:5232   */\n  0x00\n    /* \"#utility.yul\":5184:5257   */\n  swap1\n  jump\t// out\n    /* \"#utility.yul\":5263:5452   */\ntag_92:\n    /* \"#utility.yul\":5340:5372   */\n  tag_162\n  tag_91\n  jump\t// in\ntag_162:\n    /* \"#utility.yul\":5381:5446   */\n  tag_163\n    /* \"#utility.yul\":5439:5445   */\n  dup2\n    /* \"#utility.yul\":5431:5437   */\n  dup5\n    /* \"#utility.yul\":5425:5429   */\n  dup5\n    /* \"#utility.yul\":5381:5446   */\n  tag_90\n  jump\t// in\ntag_163:\n    /* \"#utility.yul\":5316:5452   */\n  pop\n    /* \"#utility.yul\":5263:5452   */\n  pop\n  pop\n  jump\t// out\n    /* \"#utility.yul\":5458:5644   */\ntag_93:\n    /* \"#utility.yul\":5518:5638   */\ntag_165:\n    /* \"#utility.yul\":5535:5538   */\n  dup2\n    /* \"#utility.yul\":5528:5533   */\n  dup2\n    /* \"#utility.yul\":5525:5539   */\n  lt\n    /* \"#utility.yul\":5518:5638   */\n  iszero\n  tag_167\n  jumpi\n    /* \"#utility.yul\":5589:5628   */\n  tag_168\n    /* \"#utility.yul\":5626:5627   */\n  0x00\n    /* \"#utility.yul\":5619:5624   */\n  dup3\n    /* \"#utility.yul\":5589:5628   */\n  tag_92\n  jump\t// in\ntag_168:\n    /* \"#utility.yul\":5562:5563   */\n  0x01\n    /* \"#utility.yul\":5555:5560   */\n  dup2\n    /* \"#utility.yul\":5551:5564   */\n  add\n    /* \"#utility.yul\":5542:5564   */\n  swap1\n  pop\n    /* \"#utility.yul\":5518:5638   */\n  jump(tag_165)\ntag_167:\n    /* \"#utility.yul\":5458:5644   */\n  pop\n  pop\n  jump\t// out\n    /* \"#utility.yul\":5650:6193   */\ntag_94:\n    /* \"#utility.yul\":5751:5753   */\n  0x1f\n    /* \"#utility.yul\":5746:5749   */\n  dup3\n    /* \"#utility.yul\":5743:5754   */\n  gt\n    /* \"#utility.yul\":5740:6186   */\n  iszero\n  tag_170\n  jumpi\n    /* \"#utility.yul\":5785:5823   */\n  tag_171\n    /* \"#utility.yul\":5817:5822   */\n  dup2\n    /* \"#utility.yul\":5785:5823   */\n  tag_83\n  jump\t// in\ntag_171:\n    /* \"#utility.yul\":5869:5898   */\n  tag_172\n    /* \"#utility.yul\":5887:5897   */\n  dup5\n    /* \"#utility.yul\":5869:5898   */\n  tag_84\n  jump\t// in\ntag_172:\n    /* \"#utility.yul\":5859:5867   */\n  dup2\n    /* \"#utility.yul\":5855:5899   */\n  add\n    /* \"#utility.yul\":6052:6054   */\n  0x20\n    /* \"#utility.yul\":6040:6050   */\n  dup6\n    /* \"#utility.yul\":6037:6055   */\n  lt\n    /* \"#utility.yul\":6034:6083   */\n  iszero\n  tag_173\n  jumpi\n    /* \"#utility.yul\":6073:6081   */\n  dup2\n    /* \"#utility.yul\":6058:6081   */\n  swap1\n  pop\n    /* \"#utility.yul\":6034:6083   */\ntag_173:\n    /* \"#utility.yul\":6096:6176   */\n  tag_174\n    /* \"#utility.yul\":6152:6174   */\n  tag_175\n    /* \"#utility.yul\":6170:6173   */\n  dup6\n    /* \"#utility.yul\":6152:6174   */\n  tag_84\n  jump\t// in\ntag_175:\n    /* \"#utility.yul\":6142:6150   */\n  dup4\n    /* \"#utility.yul\":6138:6175   */\n  add\n    /* \"#utility.yul\":6125:6136   */\n  dup3\n    /* \"#utility.yul\":6096:6176   */\n  tag_93\n  jump\t// in\ntag_174:\n    /* \"#utility.yul\":5755:6186   */\n  pop\n  pop\n    /* \"#utility.yul\":5740:6186   */\ntag_170:\n    /* \"#utility.yul\":5650:6193   */\n  pop\n  pop\n  pop\n  jump\t// out\n    /* \"#utility.yul\":6199:6316   */\ntag_95:\n    /* \"#utility.yul\":6253:6261   */\n  0x00\n    /* \"#utility.yul\":6303:6308   */\n  dup3\n    /* \"#utility.yul\":6297:6301   */\n  dup3\n    /* \"#utility.yul\":6293:6309   */\n  shr\n    /* \"#utility.yul\":6272:6309   */\n  swap1\n  pop\n    /* \"#utility.yul\":6199:6316   */\n  swap3\n  swap2\n  pop\n  pop\n  jump\t// out\n    /* \"#utility.yul\":6322:6491   */\ntag_96:\n    /* \"#utility.yul\":6366:6372   */\n  0x00\n    /* \"#utility.yul\":6399:6450   */\n  tag_178\n    /* \"#utility.yul\":6447:6448   */\n  0x00\n    /* \"#utility.yul\":6443:6449   */\n  not\n    /* \"#utility.yul\":6435:6440   */\n  dup5\n    /* \"#utility.yul\":6432:6433   */\n  0x08\n    /* \"#utility.yul\":6428:6441   */\n  mul\n    /* \"#utility.yul\":6399:6450   */\n  tag_95\n  jump\t// in\ntag_178:\n    /* \"#utility.yul\":6395:6451   */\n  not\n    /* \"#utility.yul\":6480:6484   */\n  dup1\n    /* \"#utility.yul\":6474:6478   */\n  dup4\n    /* \"#utility.yul\":6470:6485   */\n  and\n    /* \"#utility.yul\":6460:6485   */\n  swap2\n  pop\n    /* \"#utility.yul\":6373:6491   */\n  pop\n    /* \"#utility.yul\":6322:6491   */\n  swap3\n  swap2\n  pop\n  pop\n  jump\t// out\n    /* \"#utility.yul\":6496:6791   */\ntag_97:\n    /* \"#utility.yul\":6572:6576   */\n  0x00\n    /* \"#utility.yul\":6718:6747   */\n  tag_180\n    /* \"#utility.yul\":6743:6746   */\n  dup4\n    /* \"#utility.yul\":6737:6741   */\n  dup4\n    /* \"#utility.yul\":6718:6747   */\n  tag_96\n  jump\t// in\ntag_180:\n    /* \"#utility.yul\":6710:6747   */\n  swap2\n  pop\n    /* \"#utility.yul\":6780:6783   */\n  dup3\n    /* \"#utility.yul\":6777:6778   */\n  0x02\n    /* \"#utility.yul\":6773:6784   */\n  mul\n    /* \"#utility.yul\":6767:6771   */\n  dup3\n    /* \"#utility.yul\":6764:6785   */\n  or\n    /* \"#utility.yul\":6756:6785   */\n  swap1\n  pop\n    /* \"#utility.yul\":6496:6791   */\n  swap3\n  swap2\n  pop\n  pop\n  jump\t// out\n    /* \"#utility.yul\":6796:8191   */\ntag_57:\n    /* \"#utility.yul\":6913:6950   */\n  tag_182\n    /* \"#utility.yul\":6946:6949   */\n  dup3\n    /* \"#utility.yul\":6913:6950   */\n  tag_78\n  jump\t// in\ntag_182:\n    /* \"#utility.yul\":7015:7033   */\n  0xffffffffffffffff\n    /* \"#utility.yul\":7007:7013   */\n  dup2\n    /* \"#utility.yul\":7004:7034   */\n  gt\n    /* \"#utility.yul\":7001:7057   */\n  iszero\n  tag_183\n  jumpi\n    /* \"#utility.yul\":7037:7055   */\n  tag_184\n  tag_82\n  jump\t// in\ntag_184:\n    /* \"#utility.yul\":7001:7057   */\ntag_183:\n    /* \"#utility.yul\":7081:7119   */\n  tag_185\n    /* \"#utility.yul\":7113:7117   */\n  dup3\n    /* \"#utility.yul\":7107:7118   */\n  sload\n    /* \"#utility.yul\":7081:7119   */\n  tag_15\n  jump\t// in\ntag_185:\n    /* \"#utility.yul\":7166:7233   */\n  tag_186\n    /* \"#utility.yul\":7226:7232   */\n  dup3\n    /* \"#utility.yul\":7218:7224   */\n  dup3\n    /* \"#utility.yul\":7212:7216   */\n  dup6\n    /* \"#utility.yul\":7166:7233   */\n  tag_94\n  jump\t// in\ntag_186:\n    /* \"#utility.yul\":7260:7261   */\n  0x00\n    /* \"#utility.yul\":7284:7288   */\n  0x20\n    /* \"#utility.yul\":7271:7288   */\n  swap1\n  pop\n    /* \"#utility.yul\":7316:7318   */\n  0x1f\n    /* \"#utility.yul\":7308:7314   */\n  dup4\n    /* \"#utility.yul\":7305:7319   */\n  gt\n    /* \"#utility.yul\":7333:7334   */\n  0x01\n    /* \"#utility.yul\":7328:7946   */\n  dup2\n  eq\n  tag_188\n  jumpi\n    /* \"#utility.yul\":7990:7991   */\n  0x00\n    /* \"#utility.yul\":8007:8013   */\n  dup5\n    /* \"#utility.yul\":8004:8081   */\n  iszero\n  tag_189\n  jumpi\n    /* \"#utility.yul\":8056:8065   */\n  dup3\n    /* \"#utility.yul\":8051:8054   */\n  dup8\n    /* \"#utility.yul\":8047:8066   */\n  add\n    /* \"#utility.yul\":8041:8067   */\n  mload\n    /* \"#utility.yul\":8032:8067   */\n  swap1\n  pop\n    /* \"#utility.yul\":8004:8081   */\ntag_189:\n    /* \"#utility.yul\":8107:8174   */\n  tag_190\n    /* \"#utility.yul\":8167:8173   */\n  dup6\n    /* \"#utility.yul\":8160:8165   */\n  dup3\n    /* \"#utility.yul\":8107:8174   */\n  tag_97\n  jump\t// in\ntag_190:\n    /* \"#utility.yul\":8101:8105   */\n  dup7\n    /* \"#utility.yul\":8094:8175   */\n  sstore\n    /* \"#utility.yul\":7963:8185   */\n  pop\n    /* \"#utility.yul\":7298:8185   */\n  jump(tag_187)\n    /* \"#utility.yul\":7328:7946   */\ntag_188:\n    /* \"#utility.yul\":7380:7384   */\n  0x1f\n    /* \"#utility.yul\":7376:7385   */\n  not\n    /* \"#utility.yul\":7368:7374   */\n  dup5\n    /* \"#utility.yul\":7364:7386   */\n  and\n    /* \"#utility.yul\":7414:7451   */\n  tag_191\n    /* \"#utility.yul\":7446:7450   */\n  dup7\n    /* \"#utility.yul\":7414:7451   */\n  tag_83\n  jump\t// in\ntag_191:\n    /* \"#utility.yul\":7473:7474   */\n  0x00\n    /* \"#utility.yul\":7487:7695   */\ntag_192:\n    /* \"#utility.yul\":7501:7508   */\n  dup3\n    /* \"#utility.yul\":7498:7499   */\n  dup2\n    /* \"#utility.yul\":7495:7509   */\n  lt\n    /* \"#utility.yul\":7487:7695   */\n  iszero\n  tag_194\n  jumpi\n    /* \"#utility.yul\":7580:7589   */\n  dup5\n    /* \"#utility.yul\":7575:7578   */\n  dup10\n    /* \"#utility.yul\":7571:7590   */\n  add\n    /* \"#utility.yul\":7565:7591   */\n  mload\n    /* \"#utility.yul\":7557:7563   */\n  dup3\n    /* \"#utility.yul\":7550:7592   */\n  sstore\n    /* \"#utility.yul\":7631:7632   */\n  0x01\n    /* \"#utility.yul\":7623:7629   */\n  dup3\n    /* \"#utility.yul\":7619:7633   */\n  add\n    /* \"#utility.yul\":7609:7633   */\n  swap2\n  pop\n    /* \"#utility.yul\":7678:7680   */\n  0x20\n    /* \"#utility.yul\":7667:7676   */\n  dup6\n    /* \"#utility.yul\":7663:7681   */\n  add\n    /* \"#utility.yul\":7650:7681   */\n  swap5\n  pop\n    /* \"#utility.yul\":7524:7528   */\n  0x20\n    /* \"#utility.yul\":7521:7522   */\n  dup2\n    /* \"#utility.yul\":7517:7529   */\n  add\n    /* \"#utility.yul\":7512:7529   */\n  swap1\n  pop\n    /* \"#utility.yul\":7487:7695   */\n  jump(tag_192)\ntag_194:\n    /* \"#utility.yul\":7723:7729   */\n  dup7\n    /* \"#utility.yul\":7714:7721   */\n  dup4\n    /* \"#utility.yul\":7711:7730   */\n  lt\n    /* \"#utility.yul\":7708:7887   */\n  iszero\n  tag_195\n  jumpi\n    /* \"#utility.yul\":7781:7790   */\n  dup5\n    /* \"#utility.yul\":7776:7779   */\n  dup10\n    /* \"#utility.yul\":7772:7791   */\n  add\n    /* \"#utility.yul\":7766:7792   */\n  mload\n    /* \"#utility.yul\":7824:7872   */\n  tag_196\n    /* \"#utility.yul\":7866:7870   */\n  0x1f\n    /* \"#utility.yul\":7858:7864   */\n  dup10\n    /* \"#utility.yul\":7854:7871   */\n  and\n    /* \"#utility.yul\":7843:7852   */\n  dup3\n    /* \"#utility.yul\":7824:7872   */\n  tag_96\n  jump\t// in\ntag_196:\n    /* \"#utility.yul\":7816:7822   */\n  dup4\n    /* \"#utility.yul\":7809:7873   */\n  sstore\n    /* \"#utility.yul\":7731:7887   */\n  pop\n    /* \"#utility.yul\":7708:7887   */\ntag_195:\n    /* \"#utility.yul\":7933:7934   */\n  0x01\n    /* \"#utility.yul\":7929:7930   */\n  0x02\n    /* \"#utility.yul\":7921:7927   */\n  dup9\n    /* \"#utility.yul\":7917:7931   */\n  mul\n    /* \"#utility.yul\":7913:7935   */\n  add\n    /* \"#utility.yul\":7907:7911   */\n  dup9\n    /* \"#utility.yul\":7900:7936   */\n  sstore\n    /* \"#utility.yul\":7335:7946   */\n  pop\n  pop\n  pop\n    /* \"#utility.yul\":7298:8185   */\ntag_187:\n  pop\n    /* \"#utility.yul\":6888:8191   */\n  pop\n  pop\n  pop\n    /* \"#utility.yul\":6796:8191   */\n  pop\n  pop\n  jump\t// out\n    /* \"solidity/merkle_tree/merkla_tree.sol\":58:1132  contract Tree{... */\ntag_46:\n  dataSize(sub_0)\n  dup1\n  dataOffset(sub_0)\n  0x00\n  codecopy\n  0x00\n  return\nstop\n\nsub_0: assembly {\n        /* \"solidity/merkle_tree/merkla_tree.sol\":58:1132  contract Tree{... */\n      mstore(0x40, 0x80)\n      callvalue\n      dup1\n      iszero\n      tag_1\n      jumpi\n      0x00\n      dup1\n      revert\n    tag_1:\n      pop\n      jumpi(tag_2, lt(calldatasize, 0x04))\n      shr(0xe0, calldataload(0x00))\n      dup1\n      0x501895ae\n      eq\n      tag_3\n      jumpi\n      dup1\n      0x52de70af\n      eq\n      tag_4\n      jumpi\n      dup1\n      0x6a11b2a8\n      eq\n      tag_5\n      jumpi\n    tag_2:\n      0x00\n      dup1\n      revert\n        /* \"solidity/merkle_tree/merkla_tree.sol\":82:105  bytes32[] public hashes */\n    tag_3:\n      tag_6\n      0x04\n      dup1\n      calldatasize\n      sub\n      dup2\n      add\n      swap1\n      tag_7\n      swap2\n      swap1\n      tag_8\n      jump\t// in\n    tag_7:\n      tag_9\n      jump\t// in\n    tag_6:\n      mload(0x40)\n      tag_10\n      swap2\n      swap1\n      tag_11\n      jump\t// in\n    tag_10:\n      mload(0x40)\n      dup1\n      swap2\n      sub\n      swap1\n      return\n        /* \"solidity/merkle_tree/merkla_tree.sol\":969:1108  function makeHash(string memory input) public  pure returns (bytes32){... */\n    tag_4:\n      tag_12\n      0x04\n      dup1\n      calldatasize\n      sub\n      dup2\n      add\n      swap1\n      tag_13\n      swap2\n      swap1\n      tag_14\n      jump\t// in\n    tag_13:\n      tag_15\n      jump\t// in\n    tag_12:\n      mload(0x40)\n      tag_16\n      swap2\n      swap1\n      tag_11\n      jump\t// in\n    tag_16:\n      mload(0x40)\n      dup1\n      swap2\n      sub\n      swap1\n      return\n        /* \"solidity/merkle_tree/merkla_tree.sol\":845:962  function encode(string memory input) public pure returns(bytes memory){... */\n    tag_5:\n      tag_17\n      0x04\n      dup1\n      calldatasize\n      sub\n      dup2\n      add\n      swap1\n      tag_18\n      swap2\n      swap1\n      tag_14\n      jump\t// in\n    tag_18:\n      tag_19\n      jump\t// in\n    tag_17:\n      mload(0x40)\n      tag_20\n      swap2\n      swap1\n      tag_21\n      jump\t// in\n    tag_20:\n      mload(0x40)\n      dup1\n      swap2\n      sub\n      swap1\n      return\n        /* \"solidity/merkle_tree/merkla_tree.sol\":82:105  bytes32[] public hashes */\n    tag_9:\n      0x00\n      dup2\n      dup2\n      sload\n      dup2\n      lt\n      tag_22\n      jumpi\n      0x00\n      dup1\n      revert\n    tag_22:\n      swap1\n      0x00\n      mstore\n      keccak256(0x00, 0x20)\n      add\n      0x00\n      swap2\n      pop\n      swap1\n      pop\n      sload\n      dup2\n      jump\t// out\n        /* \"solidity/merkle_tree/merkla_tree.sol\":969:1108  function makeHash(string memory input) public  pure returns (bytes32){... */\n    tag_15:\n        /* \"solidity/merkle_tree/merkla_tree.sol\":1030:1037  bytes32 */\n      0x00\n        /* \"solidity/merkle_tree/merkla_tree.sol\":1078:1091  encode(input) */\n      tag_25\n        /* \"solidity/merkle_tree/merkla_tree.sol\":1085:1090  input */\n      dup3\n        /* \"solidity/merkle_tree/merkla_tree.sol\":1078:1084  encode */\n      tag_19\n        /* \"solidity/merkle_tree/merkla_tree.sol\":1078:1091  encode(input) */\n      jump\t// in\n    tag_25:\n        /* \"solidity/merkle_tree/merkla_tree.sol\":1055:1101  keccak256(... */\n      dup1\n      mload\n      swap1\n      0x20\n      add\n      keccak256\n        /* \"solidity/merkle_tree/merkla_tree.sol\":1048:1101  return keccak256(... */\n      swap1\n      pop\n        /* \"solidity/merkle_tree/merkla_tree.sol\":969:1108  function makeHash(string memory input) public  pure returns (bytes32){... */\n      swap2\n      swap1\n      pop\n      jump\t// out\n        /* \"solidity/merkle_tree/merkla_tree.sol\":845:962  function encode(string memory input) public pure returns(bytes memory){... */\n    tag_19:\n        /* \"solidity/merkle_tree/merkla_tree.sol\":902:914  bytes memory */\n      0x60\n        /* \"solidity/merkle_tree/merkla_tree.sol\":949:954  input */\n      dup2\n        /* \"solidity/merkle_tree/merkla_tree.sol\":932:955  abi.encodePacked(input) */\n      add(0x20, mload(0x40))\n      tag_27\n      swap2\n      swap1\n      tag_28\n      jump\t// in\n    tag_27:\n      mload(0x40)\n      0x20\n      dup2\n      dup4\n      sub\n      sub\n      dup2\n      mstore\n      swap1\n      0x40\n      mstore\n        /* \"solidity/merkle_tree/merkla_tree.sol\":925:955  return abi.encodePacked(input) */\n      swap1\n      pop\n        /* \"solidity/merkle_tree/merkla_tree.sol\":845:962  function encode(string memory input) public pure returns(bytes memory){... */\n      swap2\n      swap1\n      pop\n      jump\t// out\n        /* \"#utility.yul\":7:82   */\n    tag_29:\n        /* \"#utility.yul\":40:46   */\n      0x00\n        /* \"#utility.yul\":73:75   */\n      0x40\n        /* \"#utility.yul\":67:76   */\n      mload\n        /* \"#utility.yul\":57:76   */\n      swap1\n      pop\n        /* \"#utility.yul\":7:82   */\n      swap1\n      jump\t// out\n        /* \"#utility.yul\":88:205   */\n    tag_30:\n        /* \"#utility.yul\":197:198   */\n      0x00\n        /* \"#utility.yul\":194:195   */\n      dup1\n        /* \"#utility.yul\":187:199   */\n      revert\n        /* \"#utility.yul\":211:328   */\n    tag_31:\n        /* \"#utility.yul\":320:321   */\n      0x00\n        /* \"#utility.yul\":317:318   */\n      dup1\n        /* \"#utility.yul\":310:322   */\n      revert\n        /* \"#utility.yul\":334:411   */\n    tag_32:\n        /* \"#utility.yul\":371:378   */\n      0x00\n        /* \"#utility.yul\":400:405   */\n      dup2\n        /* \"#utility.yul\":389:405   */\n      swap1\n      pop\n        /* \"#utility.yul\":334:411   */\n      swap2\n      swap1\n      pop\n      jump\t// out\n        /* \"#utility.yul\":417:539   */\n    tag_33:\n        /* \"#utility.yul\":490:514   */\n      tag_60\n        /* \"#utility.yul\":508:513   */\n      dup2\n        /* \"#utility.yul\":490:514   */\n      tag_32\n      jump\t// in\n    tag_60:\n        /* \"#utility.yul\":483:488   */\n      dup2\n        /* \"#utility.yul\":480:515   */\n      eq\n        /* \"#utility.yul\":470:533   */\n      tag_61\n      jumpi\n        /* \"#utility.yul\":529:530   */\n      0x00\n        /* \"#utility.yul\":526:527   */\n      dup1\n        /* \"#utility.yul\":519:531   */\n      revert\n        /* \"#utility.yul\":470:533   */\n    tag_61:\n        /* \"#utility.yul\":417:539   */\n      pop\n      jump\t// out\n        /* \"#utility.yul\":545:684   */\n    tag_34:\n        /* \"#utility.yul\":591:596   */\n      0x00\n        /* \"#utility.yul\":629:635   */\n      dup2\n        /* \"#utility.yul\":616:636   */\n      calldataload\n        /* \"#utility.yul\":607:636   */\n      swap1\n      pop\n        /* \"#utility.yul\":645:678   */\n      tag_63\n        /* \"#utility.yul\":672:677   */\n      dup2\n        /* \"#utility.yul\":645:678   */\n      tag_33\n      jump\t// in\n    tag_63:\n        /* \"#utility.yul\":545:684   */\n      swap3\n      swap2\n      pop\n      pop\n      jump\t// out\n        /* \"#utility.yul\":690:1019   */\n    tag_8:\n        /* \"#utility.yul\":749:755   */\n      0x00\n        /* \"#utility.yul\":798:800   */\n      0x20\n        /* \"#utility.yul\":786:795   */\n      dup3\n        /* \"#utility.yul\":777:784   */\n      dup5\n        /* \"#utility.yul\":773:796   */\n      sub\n        /* \"#utility.yul\":769:801   */\n      slt\n        /* \"#utility.yul\":766:885   */\n      iszero\n      tag_65\n      jumpi\n        /* \"#utility.yul\":804:883   */\n      tag_66\n      tag_30\n      jump\t// in\n    tag_66:\n        /* \"#utility.yul\":766:885   */\n    tag_65:\n        /* \"#utility.yul\":924:925   */\n      0x00\n        /* \"#utility.yul\":949:1002   */\n      tag_67\n        /* \"#utility.yul\":994:1001   */\n      dup5\n        /* \"#utility.yul\":985:991   */\n      dup3\n        /* \"#utility.yul\":974:983   */\n      dup6\n        /* \"#utility.yul\":970:992   */\n      add\n        /* \"#utility.yul\":949:1002   */\n      tag_34\n      jump\t// in\n    tag_67:\n        /* \"#utility.yul\":939:1002   */\n      swap2\n      pop\n        /* \"#utility.yul\":895:1012   */\n      pop\n        /* \"#utility.yul\":690:1019   */\n      swap3\n      swap2\n      pop\n      pop\n      jump\t// out\n        /* \"#utility.yul\":1025:1102   */\n    tag_35:\n        /* \"#utility.yul\":1062:1069   */\n      0x00\n        /* \"#utility.yul\":1091:1096   */\n      dup2\n        /* \"#utility.yul\":1080:1096   */\n      swap1\n      pop\n        /* \"#utility.yul\":1025:1102   */\n      swap2\n      swap1\n      pop\n      jump\t// out\n        /* \"#utility.yul\":1108:1226   */\n    tag_36:\n        /* \"#utility.yul\":1195:1219   */\n      tag_70\n        /* \"#utility.yul\":1213:1218   */\n      dup2\n        /* \"#utility.yul\":1195:1219   */\n      tag_35\n      jump\t// in\n    tag_70:\n        /* \"#utility.yul\":1190:1193   */\n      dup3\n        /* \"#utility.yul\":1183:1220   */\n      mstore\n        /* \"#utility.yul\":1108:1226   */\n      pop\n      pop\n      jump\t// out\n        /* \"#utility.yul\":1232:1454   */\n    tag_11:\n        /* \"#utility.yul\":1325:1329   */\n      0x00\n        /* \"#utility.yul\":1363:1365   */\n      0x20\n        /* \"#utility.yul\":1352:1361   */\n      dup3\n        /* \"#utility.yul\":1348:1366   */\n      add\n        /* \"#utility.yul\":1340:1366   */\n      swap1\n      pop\n        /* \"#utility.yul\":1376:1447   */\n      tag_72\n        /* \"#utility.yul\":1444:1445   */\n      0x00\n        /* \"#utility.yul\":1433:1442   */\n      dup4\n        /* \"#utility.yul\":1429:1446   */\n      add\n        /* \"#utility.yul\":1420:1426   */\n      dup5\n        /* \"#utility.yul\":1376:1447   */\n      tag_36\n      jump\t// in\n    tag_72:\n        /* \"#utility.yul\":1232:1454   */\n      swap3\n      swap2\n      pop\n      pop\n      jump\t// out\n        /* \"#utility.yul\":1460:1577   */\n    tag_37:\n        /* \"#utility.yul\":1569:1570   */\n      0x00\n        /* \"#utility.yul\":1566:1567   */\n      dup1\n        /* \"#utility.yul\":1559:1571   */\n      revert\n        /* \"#utility.yul\":1583:1700   */\n    tag_38:\n        /* \"#utility.yul\":1692:1693   */\n      0x00\n        /* \"#utility.yul\":1689:1690   */\n      dup1\n        /* \"#utility.yul\":1682:1694   */\n      revert\n        /* \"#utility.yul\":1706:1808   */\n    tag_39:\n        /* \"#utility.yul\":1747:1753   */\n      0x00\n        /* \"#utility.yul\":1798:1800   */\n      0x1f\n        /* \"#utility.yul\":1794:1801   */\n      not\n        /* \"#utility.yul\":1789:1791   */\n      0x1f\n        /* \"#utility.yul\":1782:1787   */\n      dup4\n        /* \"#utility.yul\":1778:1792   */\n      add\n        /* \"#utility.yul\":1774:1802   */\n      and\n        /* \"#utility.yul\":1764:1802   */\n      swap1\n      pop\n        /* \"#utility.yul\":1706:1808   */\n      swap2\n      swap1\n      pop\n      jump\t// out\n        /* \"#utility.yul\":1814:1994   */\n    tag_40:\n        /* \"#utility.yul\":1862:1939   */\n      0x4e487b7100000000000000000000000000000000000000000000000000000000\n        /* \"#utility.yul\":1859:1860   */\n      0x00\n        /* \"#utility.yul\":1852:1940   */\n      mstore\n        /* \"#utility.yul\":1959:1963   */\n      0x41\n        /* \"#utility.yul\":1956:1957   */\n      0x04\n        /* \"#utility.yul\":1949:1964   */\n      mstore\n        /* \"#utility.yul\":1983:1987   */\n      0x24\n        /* \"#utility.yul\":1980:1981   */\n      0x00\n        /* \"#utility.yul\":1973:1988   */\n      revert\n        /* \"#utility.yul\":2000:2281   */\n    tag_41:\n        /* \"#utility.yul\":2083:2110   */\n      tag_78\n        /* \"#utility.yul\":2105:2109   */\n      dup3\n        /* \"#utility.yul\":2083:2110   */\n      tag_39\n      jump\t// in\n    tag_78:\n        /* \"#utility.yul\":2075:2081   */\n      dup2\n        /* \"#utility.yul\":2071:2111   */\n      add\n        /* \"#utility.yul\":2213:2219   */\n      dup2\n        /* \"#utility.yul\":2201:2211   */\n      dup2\n        /* \"#utility.yul\":2198:2220   */\n      lt\n        /* \"#utility.yul\":2177:2195   */\n      0xffffffffffffffff\n        /* \"#utility.yul\":2165:2175   */\n      dup3\n        /* \"#utility.yul\":2162:2196   */\n      gt\n        /* \"#utility.yul\":2159:2221   */\n      or\n        /* \"#utility.yul\":2156:2244   */\n      iszero\n      tag_79\n      jumpi\n        /* \"#utility.yul\":2224:2242   */\n      tag_80\n      tag_40\n      jump\t// in\n    tag_80:\n        /* \"#utility.yul\":2156:2244   */\n    tag_79:\n        /* \"#utility.yul\":2264:2274   */\n      dup1\n        /* \"#utility.yul\":2260:2262   */\n      0x40\n        /* \"#utility.yul\":2253:2275   */\n      mstore\n        /* \"#utility.yul\":2043:2281   */\n      pop\n        /* \"#utility.yul\":2000:2281   */\n      pop\n      pop\n      jump\t// out\n        /* \"#utility.yul\":2287:2416   */\n    tag_42:\n        /* \"#utility.yul\":2321:2327   */\n      0x00\n        /* \"#utility.yul\":2348:2368   */\n      tag_82\n      tag_29\n      jump\t// in\n    tag_82:\n        /* \"#utility.yul\":2338:2368   */\n      swap1\n      pop\n        /* \"#utility.yul\":2377:2410   */\n      tag_83\n        /* \"#utility.yul\":2405:2409   */\n      dup3\n        /* \"#utility.yul\":2397:2403   */\n      dup3\n        /* \"#utility.yul\":2377:2410   */\n      tag_41\n      jump\t// in\n    tag_83:\n        /* \"#utility.yul\":2287:2416   */\n      swap2\n      swap1\n      pop\n      jump\t// out\n        /* \"#utility.yul\":2422:2730   */\n    tag_43:\n        /* \"#utility.yul\":2484:2488   */\n      0x00\n        /* \"#utility.yul\":2574:2592   */\n      0xffffffffffffffff\n        /* \"#utility.yul\":2566:2572   */\n      dup3\n        /* \"#utility.yul\":2563:2593   */\n      gt\n        /* \"#utility.yul\":2560:2616   */\n      iszero\n      tag_85\n      jumpi\n        /* \"#utility.yul\":2596:2614   */\n      tag_86\n      tag_40\n      jump\t// in\n    tag_86:\n        /* \"#utility.yul\":2560:2616   */\n    tag_85:\n        /* \"#utility.yul\":2634:2663   */\n      tag_87\n        /* \"#utility.yul\":2656:2662   */\n      dup3\n        /* \"#utility.yul\":2634:2663   */\n      tag_39\n      jump\t// in\n    tag_87:\n        /* \"#utility.yul\":2626:2663   */\n      swap1\n      pop\n        /* \"#utility.yul\":2718:2722   */\n      0x20\n        /* \"#utility.yul\":2712:2716   */\n      dup2\n        /* \"#utility.yul\":2708:2723   */\n      add\n        /* \"#utility.yul\":2700:2723   */\n      swap1\n      pop\n        /* \"#utility.yul\":2422:2730   */\n      swap2\n      swap1\n      pop\n      jump\t// out\n        /* \"#utility.yul\":2736:2882   */\n    tag_44:\n        /* \"#utility.yul\":2833:2839   */\n      dup3\n        /* \"#utility.yul\":2828:2831   */\n      dup2\n        /* \"#utility.yul\":2823:2826   */\n      dup4\n        /* \"#utility.yul\":2810:2840   */\n      calldatacopy\n        /* \"#utility.yul\":2874:2875   */\n      0x00\n        /* \"#utility.yul\":2865:2871   */\n      dup4\n        /* \"#utility.yul\":2860:2863   */\n      dup4\n        /* \"#utility.yul\":2856:2872   */\n      add\n        /* \"#utility.yul\":2849:2876   */\n      mstore\n        /* \"#utility.yul\":2736:2882   */\n      pop\n      pop\n      pop\n      jump\t// out\n        /* \"#utility.yul\":2888:3313   */\n    tag_45:\n        /* \"#utility.yul\":2966:2971   */\n      0x00\n        /* \"#utility.yul\":2991:3057   */\n      tag_90\n        /* \"#utility.yul\":3007:3056   */\n      tag_91\n        /* \"#utility.yul\":3049:3055   */\n      dup5\n        /* \"#utility.yul\":3007:3056   */\n      tag_43\n      jump\t// in\n    tag_91:\n        /* \"#utility.yul\":2991:3057   */\n      tag_42\n      jump\t// in\n    tag_90:\n        /* \"#utility.yul\":2982:3057   */\n      swap1\n      pop\n        /* \"#utility.yul\":3080:3086   */\n      dup3\n        /* \"#utility.yul\":3073:3078   */\n      dup2\n        /* \"#utility.yul\":3066:3087   */\n      mstore\n        /* \"#utility.yul\":3118:3122   */\n      0x20\n        /* \"#utility.yul\":3111:3116   */\n      dup2\n        /* \"#utility.yul\":3107:3123   */\n      add\n        /* \"#utility.yul\":3156:3159   */\n      dup5\n        /* \"#utility.yul\":3147:3153   */\n      dup5\n        /* \"#utility.yul\":3142:3145   */\n      dup5\n        /* \"#utility.yul\":3138:3154   */\n      add\n        /* \"#utility.yul\":3135:3160   */\n      gt\n        /* \"#utility.yul\":3132:3244   */\n      iszero\n      tag_92\n      jumpi\n        /* \"#utility.yul\":3163:3242   */\n      tag_93\n      tag_38\n      jump\t// in\n    tag_93:\n        /* \"#utility.yul\":3132:3244   */\n    tag_92:\n        /* \"#utility.yul\":3253:3307   */\n      tag_94\n        /* \"#utility.yul\":3300:3306   */\n      dup5\n        /* \"#utility.yul\":3295:3298   */\n      dup3\n        /* \"#utility.yul\":3290:3293   */\n      dup6\n        /* \"#utility.yul\":3253:3307   */\n      tag_44\n      jump\t// in\n    tag_94:\n        /* \"#utility.yul\":2972:3313   */\n      pop\n        /* \"#utility.yul\":2888:3313   */\n      swap4\n      swap3\n      pop\n      pop\n      pop\n      jump\t// out\n        /* \"#utility.yul\":3333:3673   */\n    tag_46:\n        /* \"#utility.yul\":3389:3394   */\n      0x00\n        /* \"#utility.yul\":3438:3441   */\n      dup3\n        /* \"#utility.yul\":3431:3435   */\n      0x1f\n        /* \"#utility.yul\":3423:3429   */\n      dup4\n        /* \"#utility.yul\":3419:3436   */\n      add\n        /* \"#utility.yul\":3415:3442   */\n      slt\n        /* \"#utility.yul\":3405:3527   */\n      tag_96\n      jumpi\n        /* \"#utility.yul\":3446:3525   */\n      tag_97\n      tag_37\n      jump\t// in\n    tag_97:\n        /* \"#utility.yul\":3405:3527   */\n    tag_96:\n        /* \"#utility.yul\":3563:3569   */\n      dup2\n        /* \"#utility.yul\":3550:3570   */\n      calldataload\n        /* \"#utility.yul\":3588:3667   */\n      tag_98\n        /* \"#utility.yul\":3663:3666   */\n      dup5\n        /* \"#utility.yul\":3655:3661   */\n      dup3\n        /* \"#utility.yul\":3648:3652   */\n      0x20\n        /* \"#utility.yul\":3640:3646   */\n      dup7\n        /* \"#utility.yul\":3636:3653   */\n      add\n        /* \"#utility.yul\":3588:3667   */\n      tag_45\n      jump\t// in\n    tag_98:\n        /* \"#utility.yul\":3579:3667   */\n      swap2\n      pop\n        /* \"#utility.yul\":3395:3673   */\n      pop\n        /* \"#utility.yul\":3333:3673   */\n      swap3\n      swap2\n      pop\n      pop\n      jump\t// out\n        /* \"#utility.yul\":3679:4188   */\n    tag_14:\n        /* \"#utility.yul\":3748:3754   */\n      0x00\n        /* \"#utility.yul\":3797:3799   */\n      0x20\n        /* \"#utility.yul\":3785:3794   */\n      dup3\n        /* \"#utility.yul\":3776:3783   */\n      dup5\n        /* \"#utility.yul\":3772:3795   */\n      sub\n        /* \"#utility.yul\":3768:3800   */\n      slt\n        /* \"#utility.yul\":3765:3884   */\n      iszero\n      tag_100\n      jumpi\n        /* \"#utility.yul\":3803:3882   */\n      tag_101\n      tag_30\n      jump\t// in\n    tag_101:\n        /* \"#utility.yul\":3765:3884   */\n    tag_100:\n        /* \"#utility.yul\":3951:3952   */\n      0x00\n        /* \"#utility.yul\":3940:3949   */\n      dup3\n        /* \"#utility.yul\":3936:3953   */\n      add\n        /* \"#utility.yul\":3923:3954   */\n      calldataload\n        /* \"#utility.yul\":3981:3999   */\n      0xffffffffffffffff\n        /* \"#utility.yul\":3973:3979   */\n      dup2\n        /* \"#utility.yul\":3970:4000   */\n      gt\n        /* \"#utility.yul\":3967:4084   */\n      iszero\n      tag_102\n      jumpi\n        /* \"#utility.yul\":4003:4082   */\n      tag_103\n      tag_31\n      jump\t// in\n    tag_103:\n        /* \"#utility.yul\":3967:4084   */\n    tag_102:\n        /* \"#utility.yul\":4108:4171   */\n      tag_104\n        /* \"#utility.yul\":4163:4170   */\n      dup5\n        /* \"#utility.yul\":4154:4160   */\n      dup3\n        /* \"#utility.yul\":4143:4152   */\n      dup6\n        /* \"#utility.yul\":4139:4161   */\n      add\n        /* \"#utility.yul\":4108:4171   */\n      tag_46\n      jump\t// in\n    tag_104:\n        /* \"#utility.yul\":4098:4171   */\n      swap2\n      pop\n        /* \"#utility.yul\":3894:4181   */\n      pop\n        /* \"#utility.yul\":3679:4188   */\n      swap3\n      swap2\n      pop\n      pop\n      jump\t// out\n        /* \"#utility.yul\":4194:4292   */\n    tag_47:\n        /* \"#utility.yul\":4245:4251   */\n      0x00\n        /* \"#utility.yul\":4279:4284   */\n      dup2\n        /* \"#utility.yul\":4273:4285   */\n      mload\n        /* \"#utility.yul\":4263:4285   */\n      swap1\n      pop\n        /* \"#utility.yul\":4194:4292   */\n      swap2\n      swap1\n      pop\n      jump\t// out\n        /* \"#utility.yul\":4298:4466   */\n    tag_48:\n        /* \"#utility.yul\":4381:4392   */\n      0x00\n        /* \"#utility.yul\":4415:4421   */\n      dup3\n        /* \"#utility.yul\":4410:4413   */\n      dup3\n        /* \"#utility.yul\":4403:4422   */\n      mstore\n        /* \"#utility.yul\":4455:4459   */\n      0x20\n        /* \"#utility.yul\":4450:4453   */\n      dup3\n        /* \"#utility.yul\":4446:4460   */\n      add\n        /* \"#utility.yul\":4431:4460   */\n      swap1\n      pop\n        /* \"#utility.yul\":4298:4466   */\n      swap3\n      swap2\n      pop\n      pop\n      jump\t// out\n        /* \"#utility.yul\":4472:4718   */\n    tag_49:\n        /* \"#utility.yul\":4553:4554   */\n      0x00\n        /* \"#utility.yul\":4563:4676   */\n    tag_108:\n        /* \"#utility.yul\":4577:4583   */\n      dup4\n        /* \"#utility.yul\":4574:4575   */\n      dup2\n        /* \"#utility.yul\":4571:4584   */\n      lt\n        /* \"#utility.yul\":4563:4676   */\n      iszero\n      tag_110\n      jumpi\n        /* \"#utility.yul\":4662:4663   */\n      dup1\n        /* \"#utility.yul\":4657:4660   */\n      dup3\n        /* \"#utility.yul\":4653:4664   */\n      add\n        /* \"#utility.yul\":4647:4665   */\n      mload\n        /* \"#utility.yul\":4643:4644   */\n      dup2\n        /* \"#utility.yul\":4638:4641   */\n      dup5\n        /* \"#utility.yul\":4634:4645   */\n      add\n        /* \"#utility.yul\":4627:4666   */\n      mstore\n        /* \"#utility.yul\":4599:4601   */\n      0x20\n        /* \"#utility.yul\":4596:4597   */\n      dup2\n        /* \"#utility.yul\":4592:4602   */\n      add\n        /* \"#utility.yul\":4587:4602   */\n      swap1\n      pop\n        /* \"#utility.yul\":4563:4676   */\n      jump(tag_108)\n    tag_110:\n        /* \"#utility.yul\":4710:4711   */\n      0x00\n        /* \"#utility.yul\":4701:4707   */\n      dup5\n        /* \"#utility.yul\":4696:4699   */\n      dup5\n        /* \"#utility.yul\":4692:4708   */\n      add\n        /* \"#utility.yul\":4685:4712   */\n      mstore\n        /* \"#utility.yul\":4534:4718   */\n      pop\n        /* \"#utility.yul\":4472:4718   */\n      pop\n      pop\n      pop\n      jump\t// out\n        /* \"#utility.yul\":4724:5097   */\n    tag_50:\n        /* \"#utility.yul\":4810:4813   */\n      0x00\n        /* \"#utility.yul\":4838:4876   */\n      tag_112\n        /* \"#utility.yul\":4870:4875   */\n      dup3\n        /* \"#utility.yul\":4838:4876   */\n      tag_47\n      jump\t// in\n    tag_112:\n        /* \"#utility.yul\":4892:4962   */\n      tag_113\n        /* \"#utility.yul\":4955:4961   */\n      dup2\n        /* \"#utility.yul\":4950:4953   */\n      dup6\n        /* \"#utility.yul\":4892:4962   */\n      tag_48\n      jump\t// in\n    tag_113:\n        /* \"#utility.yul\":4885:4962   */\n      swap4\n      pop\n        /* \"#utility.yul\":4971:5036   */\n      tag_114\n        /* \"#utility.yul\":5029:5035   */\n      dup2\n        /* \"#utility.yul\":5024:5027   */\n      dup6\n        /* \"#utility.yul\":5017:5021   */\n      0x20\n        /* \"#utility.yul\":5010:5015   */\n      dup7\n        /* \"#utility.yul\":5006:5022   */\n      add\n        /* \"#utility.yul\":4971:5036   */\n      tag_49\n      jump\t// in\n    tag_114:\n        /* \"#utility.yul\":5061:5090   */\n      tag_115\n        /* \"#utility.yul\":5083:5089   */\n      dup2\n        /* \"#utility.yul\":5061:5090   */\n      tag_39\n      jump\t// in\n    tag_115:\n        /* \"#utility.yul\":5056:5059   */\n      dup5\n        /* \"#utility.yul\":5052:5091   */\n      add\n        /* \"#utility.yul\":5045:5091   */\n      swap2\n      pop\n        /* \"#utility.yul\":4814:5097   */\n      pop\n        /* \"#utility.yul\":4724:5097   */\n      swap3\n      swap2\n      pop\n      pop\n      jump\t// out\n        /* \"#utility.yul\":5103:5412   */\n    tag_21:\n        /* \"#utility.yul\":5214:5218   */\n      0x00\n        /* \"#utility.yul\":5252:5254   */\n      0x20\n        /* \"#utility.yul\":5241:5250   */\n      dup3\n        /* \"#utility.yul\":5237:5255   */\n      add\n        /* \"#utility.yul\":5229:5255   */\n      swap1\n      pop\n        /* \"#utility.yul\":5301:5310   */\n      dup2\n        /* \"#utility.yul\":5295:5299   */\n      dup2\n        /* \"#utility.yul\":5291:5311   */\n      sub\n        /* \"#utility.yul\":5287:5288   */\n      0x00\n        /* \"#utility.yul\":5276:5285   */\n      dup4\n        /* \"#utility.yul\":5272:5289   */\n      add\n        /* \"#utility.yul\":5265:5312   */\n      mstore\n        /* \"#utility.yul\":5329:5405   */\n      tag_117\n        /* \"#utility.yul\":5400:5404   */\n      dup2\n        /* \"#utility.yul\":5391:5397   */\n      dup5\n        /* \"#utility.yul\":5329:5405   */\n      tag_50\n      jump\t// in\n    tag_117:\n        /* \"#utility.yul\":5321:5405   */\n      swap1\n      pop\n        /* \"#utility.yul\":5103:5412   */\n      swap3\n      swap2\n      pop\n      pop\n      jump\t// out\n        /* \"#utility.yul\":5418:5517   */\n    tag_51:\n        /* \"#utility.yul\":5470:5476   */\n      0x00\n        /* \"#utility.yul\":5504:5509   */\n      dup2\n        /* \"#utility.yul\":5498:5510   */\n      mload\n        /* \"#utility.yul\":5488:5510   */\n      swap1\n      pop\n        /* \"#utility.yul\":5418:5517   */\n      swap2\n      swap1\n      pop\n      jump\t// out\n        /* \"#utility.yul\":5523:5671   */\n    tag_52:\n        /* \"#utility.yul\":5625:5636   */\n      0x00\n        /* \"#utility.yul\":5662:5665   */\n      dup2\n        /* \"#utility.yul\":5647:5665   */\n      swap1\n      pop\n        /* \"#utility.yul\":5523:5671   */\n      swap3\n      swap2\n      pop\n      pop\n      jump\t// out\n        /* \"#utility.yul\":5677:6067   */\n    tag_53:\n        /* \"#utility.yul\":5783:5786   */\n      0x00\n        /* \"#utility.yul\":5811:5850   */\n      tag_121\n        /* \"#utility.yul\":5844:5849   */\n      dup3\n        /* \"#utility.yul\":5811:5850   */\n      tag_51\n      jump\t// in\n    tag_121:\n        /* \"#utility.yul\":5866:5955   */\n      tag_122\n        /* \"#utility.yul\":5948:5954   */\n      dup2\n        /* \"#utility.yul\":5943:5946   */\n      dup6\n        /* \"#utility.yul\":5866:5955   */\n      tag_52\n      jump\t// in\n    tag_122:\n        /* \"#utility.yul\":5859:5955   */\n      swap4\n      pop\n        /* \"#utility.yul\":5964:6029   */\n      tag_123\n        /* \"#utility.yul\":6022:6028   */\n      dup2\n        /* \"#utility.yul\":6017:6020   */\n      dup6\n        /* \"#utility.yul\":6010:6014   */\n      0x20\n        /* \"#utility.yul\":6003:6008   */\n      dup7\n        /* \"#utility.yul\":5999:6015   */\n      add\n        /* \"#utility.yul\":5964:6029   */\n      tag_49\n      jump\t// in\n    tag_123:\n        /* \"#utility.yul\":6054:6060   */\n      dup1\n        /* \"#utility.yul\":6049:6052   */\n      dup5\n        /* \"#utility.yul\":6045:6061   */\n      add\n        /* \"#utility.yul\":6038:6061   */\n      swap2\n      pop\n        /* \"#utility.yul\":5787:6067   */\n      pop\n        /* \"#utility.yul\":5677:6067   */\n      swap3\n      swap2\n      pop\n      pop\n      jump\t// out\n        /* \"#utility.yul\":6073:6348   */\n    tag_28:\n        /* \"#utility.yul\":6205:6208   */\n      0x00\n        /* \"#utility.yul\":6227:6322   */\n      tag_125\n        /* \"#utility.yul\":6318:6321   */\n      dup3\n        /* \"#utility.yul\":6309:6315   */\n      dup5\n        /* \"#utility.yul\":6227:6322   */\n      tag_53\n      jump\t// in\n    tag_125:\n        /* \"#utility.yul\":6220:6322   */\n      swap2\n      pop\n        /* \"#utility.yul\":6339:6342   */\n      dup2\n        /* \"#utility.yul\":6332:6342   */\n      swap1\n      pop\n        /* \"#utility.yul\":6073:6348   */\n      swap3\n      swap2\n      pop\n      pop\n      jump\t// out\n\n    auxdata: 0xa26469706673582212203856ea5106a6759c322f7ffe6103cddbd061a33d2b3efff36132403ca135b15464736f6c63430008160033\n}\n",
				"bytecode": {
					"linkReferences": {},
					"object": "608060405260405180608001604052806040518060400160405280601781526020017f7478313a2073616e6172626f79202d3e206a6f7264616e00000000000000000081525081526020016040518060400160405280601381526020017f7478323a206a6f7264616e202d3e206b6972610000000000000000000000000081525081526020016040518060400160405280601081526020017f7478333a206b697261202d3e2073616d0000000000000000000000000000000081525081526020016040518060400160405280601081526020017f7478343a2073616d202d3e20657273680000000000000000000000000000000081525081525060019060046200010b9291906200037d565b5034801562000118575f80fd5b505f5b60048110156200020e575f620001dd6001836004811062000141576200014062000457565b5b0180546200014f90620004b1565b80601f01602080910402602001604051908101604052809291908181526020018280546200017d90620004b1565b8015620001cc5780601f10620001a257610100808354040283529160200191620001cc565b820191905f5260205f20905b815481529060010190602001808311620001ae57829003601f168201915b50505050506200033260201b60201c565b908060018154018082558091505060019003905f5260205f20015f909190919091505580806001019150506200011b565b505f600490505f5b5f8211156200032a575f5b6001836200023091906200051b565b81101562000302575f80828462000248919062000555565b815481106200025c576200025b62000457565b5b905f5260205f2001545f6001848662000276919062000555565b62000282919062000555565b8154811062000296576200029562000457565b5b905f5260205f200154604051602001620002b2929190620005bc565b60405160208183030381529060405280519060200120908060018154018082558091505060019003905f5260205f20015f9091909190915055600281620002fa919062000555565b905062000221565b50818162000311919062000555565b905060028262000322919062000618565b915062000216565b5050620009af565b5f62000344826200035260201b60201c565b805190602001209050919050565b606081604051602001620003679190620006c3565b6040516020818303038152906040529050919050565b8260048101928215620003bd579160200282015b82811115620003bc578251829081620003ab9190620008cb565b509160200191906001019062000391565b5b509050620003cc9190620003d0565b5090565b5b80821115620003f3575f8181620003e99190620003f7565b50600101620003d1565b5090565b5080546200040590620004b1565b5f825580601f1062000418575062000437565b601f0160209004905f5260205f20908101906200043691906200043a565b5b50565b5b8082111562000453575f815f9055506001016200043b565b5090565b7f4e487b71000000000000000000000000000000000000000000000000000000005f52603260045260245ffd5b7f4e487b71000000000000000000000000000000000000000000000000000000005f52602260045260245ffd5b5f6002820490506001821680620004c957607f821691505b602082108103620004df57620004de62000484565b5b50919050565b5f819050919050565b7f4e487b71000000000000000000000000000000000000000000000000000000005f52601160045260245ffd5b5f6200052782620004e5565b91506200053483620004e5565b92508282039050818111156200054f576200054e620004ee565b5b92915050565b5f6200056182620004e5565b91506200056e83620004e5565b9250828201905080821115620005895762000588620004ee565b5b92915050565b5f819050919050565b5f819050919050565b620005b6620005b0826200058f565b62000598565b82525050565b5f620005c98285620005a1565b602082019150620005db8284620005a1565b6020820191508190509392505050565b7f4e487b71000000000000000000000000000000000000000000000000000000005f52601260045260245ffd5b5f6200062482620004e5565b91506200063183620004e5565b925082620006445762000643620005eb565b5b828204905092915050565b5f81519050919050565b5f81905092915050565b5f5b838110156200068257808201518184015260208101905062000665565b5f8484015250505050565b5f62000699826200064f565b620006a5818562000659565b9350620006b781856020860162000663565b80840191505092915050565b5f620006d082846200068d565b915081905092915050565b7f4e487b71000000000000000000000000000000000000000000000000000000005f52604160045260245ffd5b5f819050815f5260205f209050919050565b5f6020601f8301049050919050565b5f82821b905092915050565b5f60088302620007667fffffffffffffffffffffffffffffffffffffffffffffffffffffffffffffffff8262000729565b62000772868362000729565b95508019841693508086168417925050509392505050565b5f819050919050565b5f620007b3620007ad620007a784620004e5565b6200078a565b620004e5565b9050919050565b5f819050919050565b620007ce8362000793565b620007e6620007dd82620007ba565b84845462000735565b825550505050565b5f90565b620007fc620007ee565b62000809818484620007c3565b505050565b5b818110156200083057620008245f82620007f2565b6001810190506200080f565b5050565b601f8211156200087f57620008498162000708565b62000854846200071a565b8101602085101562000864578190505b6200087c62000873856200071a565b8301826200080e565b50505b505050565b5f82821c905092915050565b5f620008a15f198460080262000884565b1980831691505092915050565b5f620008bb838362000890565b9150826002028217905092915050565b620008d6826200064f565b67ffffffffffffffff811115620008f257620008f1620006db565b5b620008fe8254620004b1565b6200090b82828562000834565b5f60209050601f83116001811462000941575f84156200092c578287015190505b620009388582620008ae565b865550620009a7565b601f198416620009518662000708565b5f5b828110156200097a5784890151825560018201915060208501945060208101905062000953565b868310156200099a578489015162000996601f89168262000890565b8355505b6001600288020188555050505b505050505050565b61048080620009bd5f395ff3fe608060405234801561000f575f80fd5b506004361061003f575f3560e01c8063501895ae1461004357806352de70af146100735780636a11b2a8146100a3575b5f80fd5b61005d60048036038101906100589190610177565b6100d3565b60405161006a91906101ba565b60405180910390f35b61008d6004803603810190610088919061030f565b6100f2565b60405161009a91906101ba565b60405180910390f35b6100bd60048036038101906100b8919061030f565b61010a565b6040516100ca91906103d0565b60405180910390f35b5f81815481106100e1575f80fd5b905f5260205f20015f915090505481565b5f6100fc8261010a565b805190602001209050919050565b60608160405160200161011d9190610434565b6040516020818303038152906040529050919050565b5f604051905090565b5f80fd5b5f80fd5b5f819050919050565b61015681610144565b8114610160575f80fd5b50565b5f813590506101718161014d565b92915050565b5f6020828403121561018c5761018b61013c565b5b5f61019984828501610163565b91505092915050565b5f819050919050565b6101b4816101a2565b82525050565b5f6020820190506101cd5f8301846101ab565b92915050565b5f80fd5b5f80fd5b5f601f19601f8301169050919050565b7f4e487b71000000000000000000000000000000000000000000000000000000005f52604160045260245ffd5b610221826101db565b810181811067ffffffffffffffff821117156102405761023f6101eb565b5b80604052505050565b5f610252610133565b905061025e8282610218565b919050565b5f67ffffffffffffffff82111561027d5761027c6101eb565b5b610286826101db565b9050602081019050919050565b828183375f83830152505050565b5f6102b36102ae84610263565b610249565b9050828152602081018484840111156102cf576102ce6101d7565b5b6102da848285610293565b509392505050565b5f82601f8301126102f6576102f56101d3565b5b81356103068482602086016102a1565b91505092915050565b5f602082840312156103245761032361013c565b5b5f82013567ffffffffffffffff81111561034157610340610140565b5b61034d848285016102e2565b91505092915050565b5f81519050919050565b5f82825260208201905092915050565b5f5b8381101561038d578082015181840152602081019050610372565b5f8484015250505050565b5f6103a282610356565b6103ac8185610360565b93506103bc818560208601610370565b6103c5816101db565b840191505092915050565b5f6020820190508181035f8301526103e88184610398565b905092915050565b5f81519050919050565b5f81905092915050565b5f61040e826103f0565b61041881856103fa565b9350610428818560208601610370565b80840191505092915050565b5f61043f8284610404565b91508190509291505056fea26469706673582212203856ea5106a6759c322f7ffe6103cddbd061a33d2b3efff36132403ca135b15464736f6c63430008160033",
					"opcodes": "PUSH1 0x80 PUSH1 0x40 MSTORE PUSH1 0x40 MLOAD DUP1 PUSH1 0x80 ADD PUSH1 0x40 MSTORE DUP1 PUSH1 0x40 MLOAD DUP1 PUSH1 0x40 ADD PUSH1 0x40 MSTORE DUP1 PUSH1 0x17 DUP2 MSTORE PUSH1 0x20 ADD PUSH32 0x7478313A2073616E6172626F79202D3E206A6F7264616E000000000000000000 DUP2 MSTORE POP DUP2 MSTORE PUSH1 0x20 ADD PUSH1 0x40 MLOAD DUP1 PUSH1 0x40 ADD PUSH1 0x40 MSTORE DUP1 PUSH1 0x13 DUP2 MSTORE PUSH1 0x20 ADD PUSH32 0x7478323A206A6F7264616E202D3E206B69726100000000000000000000000000 DUP2 MSTORE POP DUP2 MSTORE PUSH1 0x20 ADD PUSH1 0x40 MLOAD DUP1 PUSH1 0x40 ADD PUSH1 0x40 MSTORE DUP1 PUSH1 0x10 DUP2 MSTORE PUSH1 0x20 ADD PUSH32 0x7478333A206B697261202D3E2073616D00000000000000000000000000000000 DUP2 MSTORE POP DUP2 MSTORE PUSH1 0x20 ADD PUSH1 0x40 MLOAD DUP1 PUSH1 0x40 ADD PUSH1 0x40 MSTORE DUP1 PUSH1 0x10 DUP2 MSTORE PUSH1 0x20 ADD PUSH32 0x7478343A2073616D202D3E206572736800000000000000000000000000000000 DUP2 MSTORE POP DUP2 MSTORE POP PUSH1 0x1 SWAP1 PUSH1 0x4 PUSH3 0x10B SWAP3 SWAP2 SWAP1 PUSH3 0x37D JUMP JUMPDEST POP CALLVALUE DUP1 ISZERO PUSH3 0x118 JUMPI PUSH0 DUP1 REVERT JUMPDEST POP PUSH0 JUMPDEST PUSH1 0x4 DUP2 LT ISZERO PUSH3 0x20E JUMPI PUSH0 PUSH3 0x1DD PUSH1 0x1 DUP4 PUSH1 0x4 DUP2 LT PUSH3 0x141 JUMPI PUSH3 0x140 PUSH3 0x457 JUMP JUMPDEST JUMPDEST ADD DUP1 SLOAD PUSH3 0x14F SWAP1 PUSH3 0x4B1 JUMP JUMPDEST DUP1 PUSH1 0x1F ADD PUSH1 0x20 DUP1 SWAP2 DIV MUL PUSH1 0x20 ADD PUSH1 0x40 MLOAD SWAP1 DUP2 ADD PUSH1 0x40 MSTORE DUP1 SWAP3 SWAP2 SWAP1 DUP2 DUP2 MSTORE PUSH1 0x20 ADD DUP3 DUP1 SLOAD PUSH3 0x17D SWAP1 PUSH3 0x4B1 JUMP JUMPDEST DUP1 ISZERO PUSH3 0x1CC JUMPI DUP1 PUSH1 0x1F LT PUSH3 0x1A2 JUMPI PUSH2 0x100 DUP1 DUP4 SLOAD DIV MUL DUP4 MSTORE SWAP2 PUSH1 0x20 ADD SWAP2 PUSH3 0x1CC JUMP JUMPDEST DUP3 ADD SWAP2 SWAP1 PUSH0 MSTORE PUSH1 0x20 PUSH0 KECCAK256 SWAP1 JUMPDEST DUP2 SLOAD DUP2 MSTORE SWAP1 PUSH1 0x1 ADD SWAP1 PUSH1 0x20 ADD DUP1 DUP4 GT PUSH3 0x1AE JUMPI DUP3 SWAP1 SUB PUSH1 0x1F AND DUP3 ADD SWAP2 JUMPDEST POP POP POP POP POP PUSH3 0x332 PUSH1 0x20 SHL PUSH1 0x20 SHR JUMP JUMPDEST SWAP1 DUP1 PUSH1 0x1 DUP2 SLOAD ADD DUP1 DUP3 SSTORE DUP1 SWAP2 POP POP PUSH1 0x1 SWAP1 SUB SWAP1 PUSH0 MSTORE PUSH1 0x20 PUSH0 KECCAK256 ADD PUSH0 SWAP1 SWAP2 SWAP1 SWAP2 SWAP1 SWAP2 POP SSTORE DUP1 DUP1 PUSH1 0x1 ADD SWAP2 POP POP PUSH3 0x11B JUMP JUMPDEST POP PUSH0 PUSH1 0x4 SWAP1 POP PUSH0 JUMPDEST PUSH0 DUP3 GT ISZERO PUSH3 0x32A JUMPI PUSH0 JUMPDEST PUSH1 0x1 DUP4 PUSH3 0x230 SWAP2 SWAP1 PUSH3 0x51B JUMP JUMPDEST DUP2 LT ISZERO PUSH3 0x302 JUMPI PUSH0 DUP1 DUP3 DUP5 PUSH3 0x248 SWAP2 SWAP1 PUSH3 0x555 JUMP JUMPDEST DUP2 SLOAD DUP2 LT PUSH3 0x25C JUMPI PUSH3 0x25B PUSH3 0x457 JUMP JUMPDEST JUMPDEST SWAP1 PUSH0 MSTORE PUSH1 0x20 PUSH0 KECCAK256 ADD SLOAD PUSH0 PUSH1 0x1 DUP5 DUP7 PUSH3 0x276 SWAP2 SWAP1 PUSH3 0x555 JUMP JUMPDEST PUSH3 0x282 SWAP2 SWAP1 PUSH3 0x555 JUMP JUMPDEST DUP2 SLOAD DUP2 LT PUSH3 0x296 JUMPI PUSH3 0x295 PUSH3 0x457 JUMP JUMPDEST JUMPDEST SWAP1 PUSH0 MSTORE PUSH1 0x20 PUSH0 KECCAK256 ADD SLOAD PUSH1 0x40 MLOAD PUSH1 0x20 ADD PUSH3 0x2B2 SWAP3 SWAP2 SWAP1 PUSH3 0x5BC JUMP JUMPDEST PUSH1 0x40 MLOAD PUSH1 0x20 DUP2 DUP4 SUB SUB DUP2 MSTORE SWAP1 PUSH1 0x40 MSTORE DUP1 MLOAD SWAP1 PUSH1 0x20 ADD KECCAK256 SWAP1 DUP1 PUSH1 0x1 DUP2 SLOAD ADD DUP1 DUP3 SSTORE DUP1 SWAP2 POP POP PUSH1 0x1 SWAP1 SUB SWAP1 PUSH0 MSTORE PUSH1 0x20 PUSH0 KECCAK256 ADD PUSH0 SWAP1 SWAP2 SWAP1 SWAP2 SWAP1 SWAP2 POP SSTORE PUSH1 0x2 DUP2 PUSH3 0x2FA SWAP2 SWAP1 PUSH3 0x555 JUMP JUMPDEST SWAP1 POP PUSH3 0x221 JUMP JUMPDEST POP DUP2 DUP2 PUSH3 0x311 SWAP2 SWAP1 PUSH3 0x555 JUMP JUMPDEST SWAP1 POP PUSH1 0x2 DUP3 PUSH3 0x322 SWAP2 SWAP1 PUSH3 0x618 JUMP JUMPDEST SWAP2 POP PUSH3 0x216 JUMP JUMPDEST POP POP PUSH3 0x9AF JUMP JUMPDEST PUSH0 PUSH3 0x344 DUP3 PUSH3 0x352 PUSH1 0x20 SHL PUSH1 0x20 SHR JUMP JUMPDEST DUP1 MLOAD SWAP1 PUSH1 0x20 ADD KECCAK256 SWAP1 POP SWAP2 SWAP1 POP JUMP JUMPDEST PUSH1 0x60 DUP2 PUSH1 0x40 MLOAD PUSH1 0x20 ADD PUSH3 0x367 SWAP2 SWAP1 PUSH3 0x6C3 JUMP JUMPDEST PUSH1 0x40 MLOAD PUSH1 0x20 DUP2 DUP4 SUB SUB DUP2 MSTORE SWAP1 PUSH1 0x40 MSTORE SWAP1 POP SWAP2 SWAP1 POP JUMP JUMPDEST DUP3 PUSH1 0x4 DUP2 ADD SWAP3 DUP3 ISZERO PUSH3 0x3BD JUMPI SWAP2 PUSH1 0x20 MUL DUP3 ADD JUMPDEST DUP3 DUP2 GT ISZERO PUSH3 0x3BC JUMPI DUP3 MLOAD DUP3 SWAP1 DUP2 PUSH3 0x3AB SWAP2 SWAP1 PUSH3 0x8CB JUMP JUMPDEST POP SWAP2 PUSH1 0x20 ADD SWAP2 SWAP1 PUSH1 0x1 ADD SWAP1 PUSH3 0x391 JUMP JUMPDEST JUMPDEST POP SWAP1 POP PUSH3 0x3CC SWAP2 SWAP1 PUSH3 0x3D0 JUMP JUMPDEST POP SWAP1 JUMP JUMPDEST JUMPDEST DUP1 DUP3 GT ISZERO PUSH3 0x3F3 JUMPI PUSH0 DUP2 DUP2 PUSH3 0x3E9 SWAP2 SWAP1 PUSH3 0x3F7 JUMP JUMPDEST POP PUSH1 0x1 ADD PUSH3 0x3D1 JUMP JUMPDEST POP SWAP1 JUMP JUMPDEST POP DUP1 SLOAD PUSH3 0x405 SWAP1 PUSH3 0x4B1 JUMP JUMPDEST PUSH0 DUP3 SSTORE DUP1 PUSH1 0x1F LT PUSH3 0x418 JUMPI POP PUSH3 0x437 JUMP JUMPDEST PUSH1 0x1F ADD PUSH1 0x20 SWAP1 DIV SWAP1 PUSH0 MSTORE PUSH1 0x20 PUSH0 KECCAK256 SWAP1 DUP2 ADD SWAP1 PUSH3 0x436 SWAP2 SWAP1 PUSH3 0x43A JUMP JUMPDEST JUMPDEST POP JUMP JUMPDEST JUMPDEST DUP1 DUP3 GT ISZERO PUSH3 0x453 JUMPI PUSH0 DUP2 PUSH0 SWAP1 SSTORE POP PUSH1 0x1 ADD PUSH3 0x43B JUMP JUMPDEST POP SWAP1 JUMP JUMPDEST PUSH32 0x4E487B7100000000000000000000000000000000000000000000000000000000 PUSH0 MSTORE PUSH1 0x32 PUSH1 0x4 MSTORE PUSH1 0x24 PUSH0 REVERT JUMPDEST PUSH32 0x4E487B7100000000000000000000000000000000000000000000000000000000 PUSH0 MSTORE PUSH1 0x22 PUSH1 0x4 MSTORE PUSH1 0x24 PUSH0 REVERT JUMPDEST PUSH0 PUSH1 0x2 DUP3 DIV SWAP1 POP PUSH1 0x1 DUP3 AND DUP1 PUSH3 0x4C9 JUMPI PUSH1 0x7F DUP3 AND SWAP2 POP JUMPDEST PUSH1 0x20 DUP3 LT DUP2 SUB PUSH3 0x4DF JUMPI PUSH3 0x4DE PUSH3 0x484 JUMP JUMPDEST JUMPDEST POP SWAP2 SWAP1 POP JUMP JUMPDEST PUSH0 DUP2 SWAP1 POP SWAP2 SWAP1 POP JUMP JUMPDEST PUSH32 0x4E487B7100000000000000000000000000000000000000000000000000000000 PUSH0 MSTORE PUSH1 0x11 PUSH1 0x4 MSTORE PUSH1 0x24 PUSH0 REVERT JUMPDEST PUSH0 PUSH3 0x527 DUP3 PUSH3 0x4E5 JUMP JUMPDEST SWAP2 POP PUSH3 0x534 DUP4 PUSH3 0x4E5 JUMP JUMPDEST SWAP3 POP DUP3 DUP3 SUB SWAP1 POP DUP2 DUP2 GT ISZERO PUSH3 0x54F JUMPI PUSH3 0x54E PUSH3 0x4EE JUMP JUMPDEST JUMPDEST SWAP3 SWAP2 POP POP JUMP JUMPDEST PUSH0 PUSH3 0x561 DUP3 PUSH3 0x4E5 JUMP JUMPDEST SWAP2 POP PUSH3 0x56E DUP4 PUSH3 0x4E5 JUMP JUMPDEST SWAP3 POP DUP3 DUP3 ADD SWAP1 POP DUP1 DUP3 GT ISZERO PUSH3 0x589 JUMPI PUSH3 0x588 PUSH3 0x4EE JUMP JUMPDEST JUMPDEST SWAP3 SWAP2 POP POP JUMP JUMPDEST PUSH0 DUP2 SWAP1 POP SWAP2 SWAP1 POP JUMP JUMPDEST PUSH0 DUP2 SWAP1 POP SWAP2 SWAP1 POP JUMP JUMPDEST PUSH3 0x5B6 PUSH3 0x5B0 DUP3 PUSH3 0x58F JUMP JUMPDEST PUSH3 0x598 JUMP JUMPDEST DUP3 MSTORE POP POP JUMP JUMPDEST PUSH0 PUSH3 0x5C9 DUP3 DUP6 PUSH3 0x5A1 JUMP JUMPDEST PUSH1 0x20 DUP3 ADD SWAP2 POP PUSH3 0x5DB DUP3 DUP5 PUSH3 0x5A1 JUMP JUMPDEST PUSH1 0x20 DUP3 ADD SWAP2 POP DUP2 SWAP1 POP SWAP4 SWAP3 POP POP POP JUMP JUMPDEST PUSH32 0x4E487B7100000000000000000000000000000000000000000000000000000000 PUSH0 MSTORE PUSH1 0x12 PUSH1 0x4 MSTORE PUSH1 0x24 PUSH0 REVERT JUMPDEST PUSH0 PUSH3 0x624 DUP3 PUSH3 0x4E5 JUMP JUMPDEST SWAP2 POP PUSH3 0x631 DUP4 PUSH3 0x4E5 JUMP JUMPDEST SWAP3 POP DUP3 PUSH3 0x644 JUMPI PUSH3 0x643 PUSH3 0x5EB JUMP JUMPDEST JUMPDEST DUP3 DUP3 DIV SWAP1 POP SWAP3 SWAP2 POP POP JUMP JUMPDEST PUSH0 DUP2 MLOAD SWAP1 POP SWAP2 SWAP1 POP JUMP JUMPDEST PUSH0 DUP2 SWAP1 POP SWAP3 SWAP2 POP POP JUMP JUMPDEST PUSH0 JUMPDEST DUP4 DUP2 LT ISZERO PUSH3 0x682 JUMPI DUP1 DUP3 ADD MLOAD DUP2 DUP5 ADD MSTORE PUSH1 0x20 DUP2 ADD SWAP1 POP PUSH3 0x665 JUMP JUMPDEST PUSH0 DUP5 DUP5 ADD MSTORE POP POP POP POP JUMP JUMPDEST PUSH0 PUSH3 0x699 DUP3 PUSH3 0x64F JUMP JUMPDEST PUSH3 0x6A5 DUP2 DUP6 PUSH3 0x659 JUMP JUMPDEST SWAP4 POP PUSH3 0x6B7 DUP2 DUP6 PUSH1 0x20 DUP7 ADD PUSH3 0x663 JUMP JUMPDEST DUP1 DUP5 ADD SWAP2 POP POP SWAP3 SWAP2 POP POP JUMP JUMPDEST PUSH0 PUSH3 0x6D0 DUP3 DUP5 PUSH3 0x68D JUMP JUMPDEST SWAP2 POP DUP2 SWAP1 POP SWAP3 SWAP2 POP POP JUMP JUMPDEST PUSH32 0x4E487B7100000000000000000000000000000000000000000000000000000000 PUSH0 MSTORE PUSH1 0x41 PUSH1 0x4 MSTORE PUSH1 0x24 PUSH0 REVERT JUMPDEST PUSH0 DUP2 SWAP1 POP DUP2 PUSH0 MSTORE PUSH1 0x20 PUSH0 KECCAK256 SWAP1 POP SWAP2 SWAP1 POP JUMP JUMPDEST PUSH0 PUSH1 0x20 PUSH1 0x1F DUP4 ADD DIV SWAP1 POP SWAP2 SWAP1 POP JUMP JUMPDEST PUSH0 DUP3 DUP3 SHL SWAP1 POP SWAP3 SWAP2 POP POP JUMP JUMPDEST PUSH0 PUSH1 0x8 DUP4 MUL PUSH3 0x766 PUSH32 0xFFFFFFFFFFFFFFFFFFFFFFFFFFFFFFFFFFFFFFFFFFFFFFFFFFFFFFFFFFFFFFFF DUP3 PUSH3 0x729 JUMP JUMPDEST PUSH3 0x772 DUP7 DUP4 PUSH3 0x729 JUMP JUMPDEST SWAP6 POP DUP1 NOT DUP5 AND SWAP4 POP DUP1 DUP7 AND DUP5 OR SWAP3 POP POP POP SWAP4 SWAP3 POP POP POP JUMP JUMPDEST PUSH0 DUP2 SWAP1 POP SWAP2 SWAP1 POP JUMP JUMPDEST PUSH0 PUSH3 0x7B3 PUSH3 0x7AD PUSH3 0x7A7 DUP5 PUSH3 0x4E5 JUMP JUMPDEST PUSH3 0x78A JUMP JUMPDEST PUSH3 0x4E5 JUMP JUMPDEST SWAP1 POP SWAP2 SWAP1 POP JUMP JUMPDEST PUSH0 DUP2 SWAP1 POP SWAP2 SWAP1 POP JUMP JUMPDEST PUSH3 0x7CE DUP4 PUSH3 0x793 JUMP JUMPDEST PUSH3 0x7E6 PUSH3 0x7DD DUP3 PUSH3 0x7BA JUMP JUMPDEST DUP5 DUP5 SLOAD PUSH3 0x735 JUMP JUMPDEST DUP3 SSTORE POP POP POP POP JUMP JUMPDEST PUSH0 SWAP1 JUMP JUMPDEST PUSH3 0x7FC PUSH3 0x7EE JUMP JUMPDEST PUSH3 0x809 DUP2 DUP5 DUP5 PUSH3 0x7C3 JUMP JUMPDEST POP POP POP JUMP JUMPDEST JUMPDEST DUP2 DUP2 LT ISZERO PUSH3 0x830 JUMPI PUSH3 0x824 PUSH0 DUP3 PUSH3 0x7F2 JUMP JUMPDEST PUSH1 0x1 DUP2 ADD SWAP1 POP PUSH3 0x80F JUMP JUMPDEST POP POP JUMP JUMPDEST PUSH1 0x1F DUP3 GT ISZERO PUSH3 0x87F JUMPI PUSH3 0x849 DUP2 PUSH3 0x708 JUMP JUMPDEST PUSH3 0x854 DUP5 PUSH3 0x71A JUMP JUMPDEST DUP2 ADD PUSH1 0x20 DUP6 LT ISZERO PUSH3 0x864 JUMPI DUP2 SWAP1 POP JUMPDEST PUSH3 0x87C PUSH3 0x873 DUP6 PUSH3 0x71A JUMP JUMPDEST DUP4 ADD DUP3 PUSH3 0x80E JUMP JUMPDEST POP POP JUMPDEST POP POP POP JUMP JUMPDEST PUSH0 DUP3 DUP3 SHR SWAP1 POP SWAP3 SWAP2 POP POP JUMP JUMPDEST PUSH0 PUSH3 0x8A1 PUSH0 NOT DUP5 PUSH1 0x8 MUL PUSH3 0x884 JUMP JUMPDEST NOT DUP1 DUP4 AND SWAP2 POP POP SWAP3 SWAP2 POP POP JUMP JUMPDEST PUSH0 PUSH3 0x8BB DUP4 DUP4 PUSH3 0x890 JUMP JUMPDEST SWAP2 POP DUP3 PUSH1 0x2 MUL DUP3 OR SWAP1 POP SWAP3 SWAP2 POP POP JUMP JUMPDEST PUSH3 0x8D6 DUP3 PUSH3 0x64F JUMP JUMPDEST PUSH8 0xFFFFFFFFFFFFFFFF DUP2 GT ISZERO PUSH3 0x8F2 JUMPI PUSH3 0x8F1 PUSH3 0x6DB JUMP JUMPDEST JUMPDEST PUSH3 0x8FE DUP3 SLOAD PUSH3 0x4B1 JUMP JUMPDEST PUSH3 0x90B DUP3 DUP3 DUP6 PUSH3 0x834 JUMP JUMPDEST PUSH0 PUSH1 0x20 SWAP1 POP PUSH1 0x1F DUP4 GT PUSH1 0x1 DUP2 EQ PUSH3 0x941 JUMPI PUSH0 DUP5 ISZERO PUSH3 0x92C JUMPI DUP3 DUP8 ADD MLOAD SWAP1 POP JUMPDEST PUSH3 0x938 DUP6 DUP3 PUSH3 0x8AE JUMP JUMPDEST DUP7 SSTORE POP PUSH3 0x9A7 JUMP JUMPDEST PUSH1 0x1F NOT DUP5 AND PUSH3 0x951 DUP7 PUSH3 0x708 JUMP JUMPDEST PUSH0 JUMPDEST DUP3 DUP2 LT ISZERO PUSH3 0x97A JUMPI DUP5 DUP10 ADD MLOAD DUP3 SSTORE PUSH1 0x1 DUP3 ADD SWAP2 POP PUSH1 0x20 DUP6 ADD SWAP5 POP PUSH1 0x20 DUP2 ADD SWAP1 POP PUSH3 0x953 JUMP JUMPDEST DUP7 DUP4 LT ISZERO PUSH3 0x99A JUMPI DUP5 DUP10 ADD MLOAD PUSH3 0x996 PUSH1 0x1F DUP10 AND DUP3 PUSH3 0x890 JUMP JUMPDEST DUP4 SSTORE POP JUMPDEST PUSH1 0x1 PUSH1 0x2 DUP9 MUL ADD DUP9 SSTORE POP POP POP JUMPDEST POP POP POP POP POP POP JUMP JUMPDEST PUSH2 0x480 DUP1 PUSH3 0x9BD PUSH0 CODECOPY PUSH0 RETURN INVALID PUSH1 0x80 PUSH1 0x40 MSTORE CALLVALUE DUP1 ISZERO PUSH2 0xF JUMPI PUSH0 DUP1 REVERT JUMPDEST POP PUSH1 0x4 CALLDATASIZE LT PUSH2 0x3F JUMPI PUSH0 CALLDATALOAD PUSH1 0xE0 SHR DUP1 PUSH4 0x501895AE EQ PUSH2 0x43 JUMPI DUP1 PUSH4 0x52DE70AF EQ PUSH2 0x73 JUMPI DUP1 PUSH4 0x6A11B2A8 EQ PUSH2 0xA3 JUMPI JUMPDEST PUSH0 DUP1 REVERT JUMPDEST PUSH2 0x5D PUSH1 0x4 DUP1 CALLDATASIZE SUB DUP2 ADD SWAP1 PUSH2 0x58 SWAP2 SWAP1 PUSH2 0x177 JUMP JUMPDEST PUSH2 0xD3 JUMP JUMPDEST PUSH1 0x40 MLOAD PUSH2 0x6A SWAP2 SWAP1 PUSH2 0x1BA JUMP JUMPDEST PUSH1 0x40 MLOAD DUP1 SWAP2 SUB SWAP1 RETURN JUMPDEST PUSH2 0x8D PUSH1 0x4 DUP1 CALLDATASIZE SUB DUP2 ADD SWAP1 PUSH2 0x88 SWAP2 SWAP1 PUSH2 0x30F JUMP JUMPDEST PUSH2 0xF2 JUMP JUMPDEST PUSH1 0x40 MLOAD PUSH2 0x9A SWAP2 SWAP1 PUSH2 0x1BA JUMP JUMPDEST PUSH1 0x40 MLOAD DUP1 SWAP2 SUB SWAP1 RETURN JUMPDEST PUSH2 0xBD PUSH1 0x4 DUP1 CALLDATASIZE SUB DUP2 ADD SWAP1 PUSH2 0xB8 SWAP2 SWAP1 PUSH2 0x30F JUMP JUMPDEST PUSH2 0x10A JUMP JUMPDEST PUSH1 0x40 MLOAD PUSH2 0xCA SWAP2 SWAP1 PUSH2 0x3D0 JUMP JUMPDEST PUSH1 0x40 MLOAD DUP1 SWAP2 SUB SWAP1 RETURN JUMPDEST PUSH0 DUP2 DUP2 SLOAD DUP2 LT PUSH2 0xE1 JUMPI PUSH0 DUP1 REVERT JUMPDEST SWAP1 PUSH0 MSTORE PUSH1 0x20 PUSH0 KECCAK256 ADD PUSH0 SWAP2 POP SWAP1 POP SLOAD DUP2 JUMP JUMPDEST PUSH0 PUSH2 0xFC DUP3 PUSH2 0x10A JUMP JUMPDEST DUP1 MLOAD SWAP1 PUSH1 0x20 ADD KECCAK256 SWAP1 POP SWAP2 SWAP1 POP JUMP JUMPDEST PUSH1 0x60 DUP2 PUSH1 0x40 MLOAD PUSH1 0x20 ADD PUSH2 0x11D SWAP2 SWAP1 PUSH2 0x434 JUMP JUMPDEST PUSH1 0x40 MLOAD PUSH1 0x20 DUP2 DUP4 SUB SUB DUP2 MSTORE SWAP1 PUSH1 0x40 MSTORE SWAP1 POP SWAP2 SWAP1 POP JUMP JUMPDEST PUSH0 PUSH1 0x40 MLOAD SWAP1 POP SWAP1 JUMP JUMPDEST PUSH0 DUP1 REVERT JUMPDEST PUSH0 DUP1 REVERT JUMPDEST PUSH0 DUP2 SWAP1 POP SWAP2 SWAP1 POP JUMP JUMPDEST PUSH2 0x156 DUP2 PUSH2 0x144 JUMP JUMPDEST DUP2 EQ PUSH2 0x160 JUMPI PUSH0 DUP1 REVERT JUMPDEST POP JUMP JUMPDEST PUSH0 DUP2 CALLDATALOAD SWAP1 POP PUSH2 0x171 DUP2 PUSH2 0x14D JUMP JUMPDEST SWAP3 SWAP2 POP POP JUMP JUMPDEST PUSH0 PUSH1 0x20 DUP3 DUP5 SUB SLT ISZERO PUSH2 0x18C JUMPI PUSH2 0x18B PUSH2 0x13C JUMP JUMPDEST JUMPDEST PUSH0 PUSH2 0x199 DUP5 DUP3 DUP6 ADD PUSH2 0x163 JUMP JUMPDEST SWAP2 POP POP SWAP3 SWAP2 POP POP JUMP JUMPDEST PUSH0 DUP2 SWAP1 POP SWAP2 SWAP1 POP JUMP JUMPDEST PUSH2 0x1B4 DUP2 PUSH2 0x1A2 JUMP JUMPDEST DUP3 MSTORE POP POP JUMP JUMPDEST PUSH0 PUSH1 0x20 DUP3 ADD SWAP1 POP PUSH2 0x1CD PUSH0 DUP4 ADD DUP5 PUSH2 0x1AB JUMP JUMPDEST SWAP3 SWAP2 POP POP JUMP JUMPDEST PUSH0 DUP1 REVERT JUMPDEST PUSH0 DUP1 REVERT JUMPDEST PUSH0 PUSH1 0x1F NOT PUSH1 0x1F DUP4 ADD AND SWAP1 POP SWAP2 SWAP1 POP JUMP JUMPDEST PUSH32 0x4E487B7100000000000000000000000000000000000000000000000000000000 PUSH0 MSTORE PUSH1 0x41 PUSH1 0x4 MSTORE PUSH1 0x24 PUSH0 REVERT JUMPDEST PUSH2 0x221 DUP3 PUSH2 0x1DB JUMP JUMPDEST DUP2 ADD DUP2 DUP2 LT PUSH8 0xFFFFFFFFFFFFFFFF DUP3 GT OR ISZERO PUSH2 0x240 JUMPI PUSH2 0x23F PUSH2 0x1EB JUMP JUMPDEST JUMPDEST DUP1 PUSH1 0x40 MSTORE POP POP POP JUMP JUMPDEST PUSH0 PUSH2 0x252 PUSH2 0x133 JUMP JUMPDEST SWAP1 POP PUSH2 0x25E DUP3 DUP3 PUSH2 0x218 JUMP JUMPDEST SWAP2 SWAP1 POP JUMP JUMPDEST PUSH0 PUSH8 0xFFFFFFFFFFFFFFFF DUP3 GT ISZERO PUSH2 0x27D JUMPI PUSH2 0x27C PUSH2 0x1EB JUMP JUMPDEST JUMPDEST PUSH2 0x286 DUP3 PUSH2 0x1DB JUMP JUMPDEST SWAP1 POP PUSH1 0x20 DUP2 ADD SWAP1 POP SWAP2 SWAP1 POP JUMP JUMPDEST DUP3 DUP2 DUP4 CALLDATACOPY PUSH0 DUP4 DUP4 ADD MSTORE POP POP POP JUMP JUMPDEST PUSH0 PUSH2 0x2B3 PUSH2 0x2AE DUP5 PUSH2 0x263 JUMP JUMPDEST PUSH2 0x249 JUMP JUMPDEST SWAP1 POP DUP3 DUP2 MSTORE PUSH1 0x20 DUP2 ADD DUP5 DUP5 DUP5 ADD GT ISZERO PUSH2 0x2CF JUMPI PUSH2 0x2CE PUSH2 0x1D7 JUMP JUMPDEST JUMPDEST PUSH2 0x2DA DUP5 DUP3 DUP6 PUSH2 0x293 JUMP JUMPDEST POP SWAP4 SWAP3 POP POP POP JUMP JUMPDEST PUSH0 DUP3 PUSH1 0x1F DUP4 ADD SLT PUSH2 0x2F6 JUMPI PUSH2 0x2F5 PUSH2 0x1D3 JUMP JUMPDEST JUMPDEST DUP2 CALLDATALOAD PUSH2 0x306 DUP5 DUP3 PUSH1 0x20 DUP7 ADD PUSH2 0x2A1 JUMP JUMPDEST SWAP2 POP POP SWAP3 SWAP2 POP POP JUMP JUMPDEST PUSH0 PUSH1 0x20 DUP3 DUP5 SUB SLT ISZERO PUSH2 0x324 JUMPI PUSH2 0x323 PUSH2 0x13C JUMP JUMPDEST JUMPDEST PUSH0 DUP3 ADD CALLDATALOAD PUSH8 0xFFFFFFFFFFFFFFFF DUP2 GT ISZERO PUSH2 0x341 JUMPI PUSH2 0x340 PUSH2 0x140 JUMP JUMPDEST JUMPDEST PUSH2 0x34D DUP5 DUP3 DUP6 ADD PUSH2 0x2E2 JUMP JUMPDEST SWAP2 POP POP SWAP3 SWAP2 POP POP JUMP JUMPDEST PUSH0 DUP2 MLOAD SWAP1 POP SWAP2 SWAP1 POP JUMP JUMPDEST PUSH0 DUP3 DUP3 MSTORE PUSH1 0x20 DUP3 ADD SWAP1 POP SWAP3 SWAP2 POP POP JUMP JUMPDEST PUSH0 JUMPDEST DUP4 DUP2 LT ISZERO PUSH2 0x38D JUMPI DUP1 DUP3 ADD MLOAD DUP2 DUP5 ADD MSTORE PUSH1 0x20 DUP2 ADD SWAP1 POP PUSH2 0x372 JUMP JUMPDEST PUSH0 DUP5 DUP5 ADD MSTORE POP POP POP POP JUMP JUMPDEST PUSH0 PUSH2 0x3A2 DUP3 PUSH2 0x356 JUMP JUMPDEST PUSH2 0x3AC DUP2 DUP6 PUSH2 0x360 JUMP JUMPDEST SWAP4 POP PUSH2 0x3BC DUP2 DUP6 PUSH1 0x20 DUP7 ADD PUSH2 0x370 JUMP JUMPDEST PUSH2 0x3C5 DUP2 PUSH2 0x1DB JUMP JUMPDEST DUP5 ADD SWAP2 POP POP SWAP3 SWAP2 POP POP JUMP JUMPDEST PUSH0 PUSH1 0x20 DUP3 ADD SWAP1 POP DUP2 DUP2 SUB PUSH0 DUP4 ADD MSTORE PUSH2 0x3E8 DUP2 DUP5 PUSH2 0x398 JUMP JUMPDEST SWAP1 POP SWAP3 SWAP2 POP POP JUMP JUMPDEST PUSH0 DUP2 MLOAD SWAP1 POP SWAP2 SWAP1 POP JUMP JUMPDEST PUSH0 DUP2 SWAP1 POP SWAP3 SWAP2 POP POP JUMP JUMPDEST PUSH0 PUSH2 0x40E DUP3 PUSH2 0x3F0 JUMP JUMPDEST PUSH2 0x418 DUP2 DUP6 PUSH2 0x3FA JUMP JUMPDEST SWAP4 POP PUSH2 0x428 DUP2 DUP6 PUSH1 0x20 DUP7 ADD PUSH2 0x370 JUMP JUMPDEST DUP1 DUP5 ADD SWAP2 POP POP SWAP3 SWAP2 POP POP JUMP JUMPDEST PUSH0 PUSH2 0x43F DUP3 DUP5 PUSH2 0x404 JUMP JUMPDEST SWAP2 POP DUP2 SWAP1 POP SWAP3 SWAP2 POP POP JUMP INVALID LOG2 PUSH5 0x6970667358 0x22 SLT KECCAK256 CODESIZE JUMP 0xEA MLOAD MOD 0xA6 PUSH22 0x9C322F7FFE6103CDDBD061A33D2B3EFFF36132403CA1 CALLDATALOAD 0xB1 SLOAD PUSH5 0x736F6C6343 STOP ADDMOD AND STOP CALLER "
				},
				"gasEstimates": {
					"creation": {
						"codeDepositCost": "230400",
						"executionCost": "infinite",
						"totalCost": "infinite"
					},
					"external": {
						"encode(string)": "infinite",
						"hashes(uint256)": "4848",
						"makeHash(string)": "infinite"
					}
				},
				"methodIdentifiers": {
					"encode(string)": "6a11b2a8",
					"hashes(uint256)": "501895ae",
					"makeHash(string)": "52de70af"
				}
			},
			"storageLayout": {
				"storage": [
					{
						"astId": 4,
						"contract": "solidity/merkle_tree/merkla_tree.sol:Tree",
						"label": "hashes",
						"offset": 0,
						"slot": "0",
						"type": "t_array(t_bytes32)dyn_storage"
					},
					{
						"astId": 13,
						"contract": "solidity/merkle_tree/merkla_tree.sol:Tree",
						"label": "transactions",
						"offset": 0,
						"slot": "1",
						"type": "t_array(t_string_storage)4_storage"
					}
				],
				"types": {
					"t_array(t_bytes32)dyn_storage": {
						"base": "t_bytes32",
						"encoding": "dynamic_array",
						"label": "bytes32[]",
						"numberOfBytes": "32"
					},
					"t_array(t_string_storage)4_storage": {
						"base": "t_string_storage",
						"encoding": "inplace",
						"label": "string[4]",
						"numberOfBytes": "128"
					},
					"t_bytes32": {
						"encoding": "inplace",
						"label": "bytes32",
						"numberOfBytes": "32"
					},
					"t_string_storage": {
						"encoding": "bytes",
						"label": "string",
						"numberOfBytes": "32"
					}
				}
			},
			"userdoc": {
				"kind": "user",
				"methods": {},
				"version": 1
			}
		}
	}
}